:020000040800F2
:10000000784F002045010008A9220008AB22000813
:10001000AF220008B3220008B72200080000000049
:10002000000000000000000000000000BB220008EB
:10003000BD22000800000000BF220008C122000805
:100040005F0100085F0100085F0100085F01000810
:100050005F0100085F0100085F0100085F01000800
:100060005F0100085F0100085F0100085F010008F0
:100070005F0100085F0100085F0100085F010008E0
:100080005F0100085F0100085F0100085F010008D0
:100090005F0100085F0100085F010008DD22000821
:1000A0005F0100085F0100085F0100085F010008B0
:1000B000C32200085F0100085F0100085F0100081B
:1000C0005F0100085F0100085F0100085F01000890
:1000D0005F0100085F0100085F0100085F01000880
:1000E0005F0100085F0100085F0100085F01000870
:1000F0005F0100085F0100085F0100085F01000860
:100100005F0100085F0100085F0100085F0100084F
:100110005F0100085F0100085F0100085F0100083F
:100120005F0100085F0100085F0100085F0100082F
:10013000DFF80CD009F08EF9004800477121000863
:10014000784F00200648804706480047FEE7FEE754
:10015000FEE7FEE7FEE7FEE7FEE7FEE7FEE7FEE777
:1001600047020008310100080CB500200190009002
:100170006C48006840F480306A49086000BF6948F4
:10018000006800F4003000900198401C0190009835
:1001900018B90198B0F5A06FF1D16248006800F479
:1001A000003010B10120009001E000200090009884
:1001B000012843D15C48006840F010005A490860AB
:1001C0000846006820F0030008600846006840F018
:1001D0000200086053484068524948600846406839
:1001E00048600846406840F48060486008464068BF
:1001F00020F47C1048600846406840F4E8104860ED
:100200000846006840F08070086000BF45480068FC
:1002100000F000700028F9D04248406820F0030048
:10022000404948600846406840F00200486000BF0E
:100230003C48406800F00C000828F9D10CBD10B50E
:10024000FFF792FF10BD10B53648006840F001007E
:1002500034490860084640683449084031494860DC
:1002600008460068324908402E4908600846006880
:1002700020F4802008600846406820F4FE004860B2
:100280004FF41F008860FFF7DAFF4FF00060294944
:10029000086010BD10B5002100200022214B5B68D2
:1002A00003F00C0121B1042906D0082928D107E068
:1002B000214B224C236027E01F4B204C236023E07E
:1002C000184B5B6803F47010164B5B6803F48032C4
:1002D000022303EB904022B9194B4343174C236090
:1002E0000DE0104B5B6803F4003323B1144B434320
:1002F000124C236003E0104B4343104C236003E097
:100300000D4B0E4C236000BF00BF064B5B68C3F370
:1003100003130C4CE15C094B1B68CB40074C23607A
:1003200010BD000000100240002002400000FFF855
:10033000FFFFF6FE08ED00E000127A00000000204A
:1003400000093D000400002031490143314A116099
:10035000704770B5002100230F22C47804B32D4CE0
:10036000246804F4E064C4F5E064210AC1F10403E4
:10037000CA40447804FA03F1847814402143090107
:10038000254C0678A155047804F01F050124AC40E3
:1003900005786D11AD0005F1E025C5F8004109E0D3
:1003A000047804F01F050124AC401C4D067876113A
:1003B00045F8264070BD1A4A0A400243154B1B1FE0
:1003C0001A60704739B1134A121D12680243114B6B
:1003D0001B1D1A6006E00F4A121D126882430D4B66
:1003E0001B1D1A607047042808D14FF0E0210969ED
:1003F00041F004014FF0E022116107E04FF0E021ED
:10040000096921F004014FF0E022116170470000FA
:100410000000FA050CED00E000E400E080E100E0FF
:1004200080FFFF1F002044490860091D0860091D66
:100430000860091D086041483F4914310860704751
:1004400000213D498279002A3AD00A4612680368A1
:100450009A430B461A600A1D126803689A430B1DE3
:100460001A60027911440A6803681A430A60324A22
:100470000832126803689A432F4B08331A601A1D1A
:10048000126803689A432C4B0C331A604279102A85
:100490000ED11A1F126803681A43274B08331A60DB
:1004A0001A1D126803681A43234B0C331A600DE0BF
:1004B0002149427911440A6803681A430A6005E039
:1004C000027911440A6803689A430A607047002160
:1004D000016001710C214171002181717047164941
:1004E000103109680143144A103211607047014607
:1004F0000020114A143212680A400AB1012000E0BB
:10050000002070470C4914310860704701460020F4
:100510000022094B1B6803EA0102074B14331B68D6
:100520000B4013B10AB1012000E0002070470249DE
:10053000143108607047000000040140FFFF0F0005
:1005400010B50446CC48844208D10121042000F0B3
:100550002DFB0021042000F029FB46E0C74884421F
:1005600008D10121082000F021FB0021082000F023
:100570001DFB3AE0C248844208D10121102000F05E
:1005800015FB0021102000F011FB2EE0BD48844235
:1005900008D10121202000F009FB0021202000F0DB
:1005A00005FB22E0B848844208D10121402000F038
:1005B000FDFA0021402000F0F9FA16E0B348844229
:1005C00008D10121802000F0F1FA0021802000F004
:1005D000EDFA0AE0AE48844207D10121801500F00F
:1005E000E5FA0021A01500F0E1FA10BD10B50121D7
:1005F000084600F0DBFA0021012000F0D7FA10BD18
:100600002DE9F041024600250026002000230024A9
:10061000002791F803C00CF00F0591F803C00CF00F
:10062000100CBCF1000F03D091F802C04CEA050594
:1006300091F800C0BCF1000F31D0146800202BE00D
:100640004FF0010C0CFA00F3B1F800C00CEA0306FD
:100650009E4220D183004FF00F0C0CFA03F7BC43ED
:1006600005FA03FC4CEA040491F803C0BCF1280F1E
:1006700006D14FF0010C0CFA00FCC2F814C00AE0DD
:1006800091F803C0BCF1480F05D14FF0010C0CFAF2
:1006900000FCC2F810C0401C0828D1D31460B1F887
:1006A00000C0BCF1FF0F34DD546800202EE000F1E3
:1006B000080C4FF0010808FA0CF3B1F800C00CEA7E
:1006C00003069E4221D183004FF00F0C0CFA03F772
:1006D000BC4305FA03FC4CEA040491F803C0BCF1E6
:1006E000280F05D100F1080C08FA0CF8C2F81480A4
:1006F00091F803C0BCF1480F07D100F1080C4FF08E
:10070000010808FA0CF8C2F81080401C0828CED363
:100710005460BDE8F0814FF6FF71018002218170C5
:100720000421C17070470246002093680B400BB152
:10073000012000E0002070470146886880B27047C1
:1007400002460020D3680B400BB1012000E00020DE
:1007500070470146C86880B27047016170474161C7
:1007600070470AB1016100E041617047C1607047A4
:100770004FF480320A4382618161826182698269B9
:10078000704702460020434B18684FF680731840AC
:1007900040EA021008433F4B186070473E49C86169
:1007A0007047F0B50A46002300240021002500F020
:1007B0000046B6F1004F02D1364EF16901E0354EE8
:1007C0007168C0F3034583B200F44016B6F5401FCC
:1007D00008D121F070612F4E766826F070662D4F9B
:1007E0007E6012E000F48016B6F5801F06D1032665
:1007F00006FA05F4A14341F0706106E0460D3601AA
:1008000003FA06F6B14341F0706122B1460D36019C
:1008100003FA06F6314300F00046B6F1004F02D16C
:100820001C4EF16101E01B4E7160F0BD30B500223D
:100830008B071C0F0F2303FA04F2164B08338C109E
:1008400053F824309343134C08348D1044F825306A
:1008500023468C1053F824308C07240F00FA04F43C
:1008600023430C4C08348D1044F8253030BD0A4920
:10087000DC3108607047000000080140000C0140B6
:10088000001001400014014000180140001C01400C
:10089000002001400000014000002042DF480068C5
:1008A00040F00100DD49086008464068DC49084026
:1008B000DA49486008460068DA490840D7490860C4
:1008C0000846006820F4802008600846406820F44C
:1008D000FE0048604FF41F0088607047CF490968E8
:1008E00021F48031CD4A11601146096821F480213C
:1008F0001160B0F5803F03D0B0F5802F0ED106E037
:10090000C649096841F48031C44A116007E0C3490F
:10091000096841F4A021C14A116000E000BF00BF96
:10092000704710B501460022002300204A11012A19
:1009300002D1BA4C236806E0022A02D1B74C236ADE
:1009400001E0B64C636A01F01F02012494401C4090
:100950000CB1012000E0002010BD38B5002000904F
:100960000024002500BF3120FFF7DBFF054600987B
:10097000401C00900098B0F5A06F01D0002DF2D07F
:100980003120FFF7CEFF08B1012400E0002420460B
:1009900038BD01460020A14A106820F0F80040EA66
:1009A000C10010607047A0490860704702460020EF
:1009B0009A4B586820F47C1042EA01031843974B85
:1009C0005860704798490866704701460020934A6E
:1009D000506820F003000843506070478F4840681B
:1009E00000F00C007047014600208C4A506820F04F
:1009F000F00008435060704701460020874A506865
:100A000020F4E06008435060704701460020834AAC
:100A1000506820F4605040EAC1005060704729B12E
:100A20007E4A527A02437D4B5A7204E07B4A527AE4
:100A300082437A4B5A7270477B49D83108607047BD
:100A400001460020754A506820F440400843506039
:100A500070470021714A20321170704A82F82010CC
:100A6000012802D004280AD104E001216B4A203277
:100A7000117005E00521694A2032117000E000BFC5
:100A800000BF70476949086070476449096A0143BB
:100A9000624A11627047654944390860704730B551
:100AA00000210022002400235C4D6D6805F00C013C
:100AB00021B1042905D0082923D105E05C4D05604A
:100AC00022E05B4D05601FE0544D6D6805F4701227
:100AD000524D6D6805F48034022505EB92421CB935
:100AE000544D554305600BE04C4D6D6805F40035E1
:100AF0001DB1504D5543056002E04D4D5543056015
:100B000002E04B4D056000BF00BF444D6D6805F02D
:100B1000F0010909484D6B5C0568DD4045603F4DBB
:100B20006D6805F4E061090A434D6B5C4568DD4082
:100B300085603A4D6D6805F46051C90A3E4D6B5CA5
:100B40004568DD40C560354D6D6805F44041890B51
:100B50003A4D6B5CC568B5FBF3F5056130BD29B155
:100B60002E4A526902432D4B5A6104E02B4A5269C6
:100B700082432A4B5A61704729B1284A926902433D
:100B8000264B9A6104E0254A92698243234B9A617D
:100B9000704729B1214AD2690243204BDA6104E04F
:100BA0001E4AD26982431D4BDA61704729B11B4A44
:100BB000D2680243194BDA6004E0184AD2688243D3
:100BC000164BDA60704729B1144A12690243134B7D
:100BD0001A6104E0114A12698243104B1A6170478E
:100BE00012494039086070470F49C86470470B4983
:100BF000C87170470948406A40F0807007494862F0
:100C0000704701460020054A92680A400AB1012057
:100C100000E00020704701498872704700100240D0
:100C20000000FFF8FFFFF6FE00004242800442424F
:100C300000127A0000093D0014000020240000206A
:100C400010B50446BE48844208D101218014FFF744
:100C5000ADFF0021A014FFF7A9FF16E0B9488442B8
:100C600008D101210014FFF7AEFF00212014FFF787
:100C7000AAFF0AE0B448844207D10121C013FFF75C
:100C8000A2FF0021E013FFF79EFF10BD10B5002268
:100C9000028802F441520B884C8823438C882343FA
:100CA000CC8823430C8923434C8923438C892343D9
:100CB000CC8923431A430280838B4FF2FF74234075
:100CC00083830B8A038210BD2DE9F04F85B0054662
:100CD0000C464FF0000902274FF000084FF0010BBF
:100CE0000026B246A88B4FF240010840A88302209C
:100CF0002884B5F81C90A068022801D100BF38E014
:100D0000A08810B94FF0010B01E04FF0020B8D48A5
:100D1000854200D100E000BF6846FFF7C0FEDDF865
:100D200000A0E088B0F5007F0AD14FEA1A2000EB5E
:100D300080004000A168B0FBF1F0401D86B20BE0DE
:100D40004FEA4B10BAFBF0F000EB80004000A168C6
:100D5000B0FBF1F0401D86B20A20B6FBF0F606F0BB
:100D60000108A6EB0800C0F34F074FF6FF7000EA3A
:100D70000828022F01DBFF2F02DD02274FF00008B9
:100D8000E08840EA080038432884A088A189084305
:100D9000618808432188084340F4006040EA09095B
:100DA000A5F81C9005B0BDE8F08F002101804180BE
:100DB0008180C180018141818181C18107210182BE
:100DC00070470021018041808180C18002218160C3
:100DD00000218181704721B1028842F040020280E7
:100DE00004E002884FF6BF731A400280704721B1B9
:100DF000828B42F48062828304E0828B4FF6FF3361
:100E00001A408283704730B5002400230C1101255D
:100E1000A540ABB21AB185881D43858002E0858864
:100E20009D43858030BD1AB183880B43838002E0E7
:100E300083888B438380704781817047014688890E
:100E400070474FF6FF62914204D0028842F48072EC
:100E5000028004E002884FF6FF631A400280704768
:100E600021B1828842F00402828004E082884FF639
:100E7000FB731A408280704702884FF2FF731A405A
:100E8000028002880A4302807047018841F4805141
:100E90000180704721B1028842F40052028004E0D0
:100EA00002884DF6FF731A40028070470246002008
:100EB000012901D0108B00E0908A70470146088A12
:100EC0007047B1F5804F04D1028842F4804202801D
:100ED00004E002884BF6FF731A4002807047024616
:100EE000002013890B400BB1012000E00020704767
:100EF000CA4302817047F0B5024600200024002357
:100F0000002501F00F070126BE40B4B20B110126E7
:100F10009E40B3B2968806EA03051689264016B1AC
:100F20000DB1012000E00020F0BD10B5002201F05D
:100F30000F040123A3409AB2D343038110BD0000E4
:100F40000030014000380040003C004010B504462D
:100F5000FE48844208D10121C014FFF727FE00217A
:100F6000E014FFF723FEC4E0B4F1804F08D1012163
:100F70000846FFF728FE00210120FFF724FEB8E015
:100F8000F348844208D101210220FFF71CFE002112
:100F90000220FFF718FEACE0EE48844208D10121A0
:100FA0000420FFF710FE00210420FFF70CFEA0E054
:100FB000E948844208D101210820FFF704FE0021FE
:100FC0000820FFF700FE94E0E448844208D10121A4
:100FD0001020FFF7F8FD00211020FFF7F4FD88E056
:100FE000DF48844208D101212020FFF7ECFD0021D9
:100FF0002020FFF7E8FD7CE0DA48844208D1012197
:101000004014FFF7D3FD00216014FFF7CFFD70E01F
:10101000D548844209D10121C804FFF7C7FD00214A
:101020004FF40020FFF7C2FD63E0D048844209D1AD
:1010300001210805FFF7BAFD00214FF48010FFF7EA
:10104000B5FD56E0CA48844209D101214805FFF7A1
:10105000ADFD00214FF40010FFF7A8FD49E0C548A1
:10106000844208D101214020FFF7ADFD002140203E
:10107000FFF7A9FD3DE0C048844208D1012180204E
:10108000FFF7A1FD00218020FFF79DFD31E0BB4867
:10109000844208D101218015FFF795FD0021A0159C
:1010A000FFF791FD25E0B648844209D101210804EB
:1010B000FFF77CFD00214FF48030FFF777FD18E04B
:1010C000B048844209D101214804FFF76FFD002197
:1010D0004FF40030FFF76AFD0BE0AB48844208D1C3
:1010E00001218804FFF762FD00214FF48020FFF703
:1010F0005DFD10BD00220288944B98420ED0994BA2
:1011000098420BD0B0F1804F08D0914B984205D057
:10111000904B984202D0904B984204D14FF68F7377
:101120001A404B881A438D4B984207D08C4B9842FB
:1011300004D04FF6FF431A40CB881A4302808B88B5
:1011400083850B880385814B98420BD0854B984251
:1011500008D08B4B984205D08A4B984202D08A4BDC
:10116000984201D10B7A038601238382704770B5C0
:10117000002400220023058C4FF6FE7635400584BE
:10118000028C8388048B4FF68F752C40B51E2C4043
:101190000D882C43751E2A400D892A434D882A4309
:1011A0006A4DA8420BD06F4DA84208D0744DA8429A
:1011B00005D0744DA84202D0734DA84213D14FF60A
:1011C000F7752A404D892A434FF6FB752A408D88D2
:1011D0002A434FF6FF652B404FF6FF552B408D8974
:1011E0002B43CD892B4383800483CD88858602845D
:1011F00070BD70B5002400220023058C4FF6EF76F9
:1012000035400584028C8388048B48F6FF752C409A
:101210004FF6FF452C400D884FF6FF7606EA052570
:101220002C434FF6DF752A400D8906EA05152A433F
:101230004D8806EA05152A43444DA84202D0494D7F
:10124000A8421DD14FF67F752A404D894FF6FF7693
:1012500006EA05152A434FF6BF752A408D8806EA2F
:1012600005152A434FF6FF352B404FF2FF752B40F3
:101270008D8906EA85052B43CD8906EA85052B4332
:1012800083800483CD880587028470BD70B50024F7
:1012900000220023058C4FF6FF6635400584028C42
:1012A0008388848B4FF68F752C404FF6FC752C404D
:1012B0000D882C434FF6FF552A400D894FF6FF76D7
:1012C00006EA05252A434D8806EA05252A431F4DCF
:1012D000A84202D0234DA8421DD14FF2FF752A40EB
:1012E0004D894FF6FF7606EA05252A434FF6FF356E
:1012F0002A408D8806EA05252A434EF6FF752B40C5
:101300004DF6FF752B408D8906EA05152B43CD89D7
:1013100006EA05152B4383808483CD888587028464
:1013200070BD70B5002200230024058C4EF6FF76B8
:1013300035400584038C8488828B48F6FF752A40EB
:101340004FF6FF452A400D8820E00000002C0140A8
:101350000004004000080040000C00400010004065
:101360000014004000340140004C01400050014096
:101370000054014000180040001C004000200040C4
:101380000040014000440140004801404FF6FF7614
:1013900006EA05252A434DF6FF752B400D8906EA1E
:1013A00005352B434D8806EA05352B43FA4DA842F7
:1013B00002D0FA4DA84208D14BF6FF752C408D891A
:1013C0004FF6FF7606EA85152C4384808283CD880C
:1013D000A0F84050038470BD828B4FF2FF331A4057
:1013E0008283828B4FF6FF7303EA01231A438283C1
:1013F0007047F0B50C461546002200210026078CE8
:101400004EF6FF7C07EA0C070784828B018C4FF6AF
:10141000FF7707EA043640F6FF473A404FF6FF777A
:1014200007EA05273A434FF6FF7707EA03373A43BF
:10143000D94FB8420ED0D94FB8420BD0B0F1804F3F
:1014400008D0D74FB84205D0D64FB84202D0D64FB9
:10145000B84206D14DF6FF77394046F480573943FC
:1014600005E047F6FF57394044F4805739438283FB
:101470000184F0BD828B4FF6F3731A408283828B16
:101480000A4382837047F0B50C46154600220021BE
:101490000026078C4FF6FF6C07EA0C070784828B47
:1014A000018C4FF6FF7707EA04264FF60C773A4097
:1014B0004FF6FF7707EA03172F433A43B64FB84278
:1014C0000ED0B64FB8420BD0B0F1804F08D0B44F19
:1014D000B84205D0B34FB84202D0B34FB84206D19C
:1014E0004FF6FF57394046F48077394305E04FF215
:1014F000FF57394044F48077394382830184F0BD3B
:10150000028B4FF2FF331A400283028B4FF6FF73B8
:1015100003EA01231A4302837047F0B50C461546CF
:10152000002200210026078C4FF6EF7C07EA0C070B
:101530000784028B018C4FF6FF7707EA041640F60A
:10154000FF473A404FF6FF7707EA03373A434FF633
:10155000FF7707EA05273A438F4FB8420ED08F4FE7
:10156000B8420BD0B0F1804F08D08D4FB84205D0B3
:101570008C4FB84202D08C4FB84206D14FF6DF777D
:10158000394046F01007394305E04FF65F773940A0
:1015900044F01007394302830184F0BD028B4FF6FB
:1015A000F3731A400283028B0A4302837047F0B53B
:1015B0000C46154600220021068C4FF6FE773E4071
:1015C0000684028B018C4FF60C7632407E1C06EAB4
:1015D00003162E433243704EB0420ED06F4EB042CF
:1015E0000BD0B0F1804F08D06D4EB04205D06D4E9B
:1015F000B04202D06C4EB04206D14FF6FD7631407B
:1016000044F00106314305E04FF6F576314044F0F1
:101610000106314302830184F0BD70B505460C46D6
:101620005D4885420ED05D4885420BD0B5F1804FB4
:1016300008D05B48854205D05A48854202D05A48B6
:10164000854200D100E000BF208850B92389A288DC
:1016500061882846FFF7ABFFE1882846FFF79EFF29
:1016600025E0208804280AD12389A2886188284699
:10167000FFF753FFE1882846FFF742FF17E0208875
:1016800008280AD12389A28861882846FFF7FBFE33
:10169000E1882846FFF7EEFE09E02389A2886188E9
:1016A0002846FFF7A6FEE1882846FFF795FE70BDA5
:1016B0002DE9F04105460C4600260127608808B94F
:1016C000022600E00026A088012801D1022700E0C0
:1016D00001272088A0B92389A28861882846FFF7BE
:1016E00066FFE1882846FFF759FF23893A463146CD
:1016F0002846FFF712FFE1882846FFF701FF13E0B5
:101700002389A28861882846FFF707FFE1882846D9
:10171000FFF7F6FE23893A4631462846FFF747FF92
:10172000E1882846FFF73AFFBDE8F0810A884B8838
:101730001A438B881A43CB881A430B891A434B8967
:101740001A438B891A43A0F8442070474FF6FF7163
:10175000818000210180C180418001727047002199
:10176000018041808180C180018141818181C1816D
:101770007047002101804180012181800021C180CA
:10178000018170470021018041808180C1800181F9
:101790004181818170470000002C014000340140EC
:1017A0000004004000080040000C004021B1028805
:1017B00042F00102028004E002884FF6FE731A40F4
:1017C0000280704731B1B0F8442042F40042A0F8E2
:1017D000442005E0B0F84420C2F30E02A0F84420F3
:1017E00070471AB183890B43838102E083898B435D
:1017F000838170478182704741EA0203A0F8483034
:1018000070471AB183890B43838102E083898B433C
:101810008381704701894FF6F8721140018170474A
:101820000A46002101894FF68F7319401143018147
:10183000704730B504460D4629462046FFF7F0FFB5
:10184000208940F00700208130BD2DE9F041044699
:101850000D4616461F46602D06D13B4601223146F5
:101860002046FFF75AFE05E03B460122314620465E
:10187000FFF79DFE29462046FFF7D2FF208940F062
:1018800007002081BDE8F08130B50C4600210189B8
:10189000C9B24FF6FF7505EA0325154325432943D1
:1018A000018130BD2DE9F04105460E4617469846A8
:1018B000002443463A4631462846FFF7E5FF2C8987
:1018C0004FF6F870044044F007044FF68F70044060
:1018D00044F070042C81BDE8F081F0B504460D465B
:1018E00016461F463B46324629462046FFF7CCFFA8
:1018F000208940F480402081F0BD018582827047BC
:101900000A46002101884FF68F7319401143018068
:101910007047F0B50C4615461E46002100220023F4
:101920000189028B038C4FF6F877394021434FF63B
:10193000FC473A4040F201173A434FF6DD773B400F
:101940004FF6FF7707EA06172F433B4301810283D7
:101950000384F0BD0A460021018B4FF68F731940B6
:101960001143018370470A460021018B48F6FF733B
:1019700019404FF6FF7303EA0223194301837047AE
:101980000A460021818B4FF68F73194011438183E2
:1019900070470A460021818B48F6FF7319404FF6C5
:1019A000FF7303EA022319438183704721B1028840
:1019B00042F08002028004E002884FF67F731A40F2
:1019C0000280704721B1828842F00402828004E0E4
:1019D00082884FF6FB731A408280704721B182885B
:1019E00042F00802828004E082884FF6F7731A40C2
:1019F0008280704721B1828842F00102828004E037
:101A000082884FF6FE731A40828070470A46002192
:101A1000018B4FF6F77319401143018370470A4653
:101A20000021018B4FF2FF7319404FF6FF7303EA59
:101A300002231943018370470A460021818B4FF628
:101A4000F77319401143818370470A460021818B47
:101A50004FF2FF7319404FF6FF7303EA0223194355
:101A6000818370470A460021018B4FF6FB731940B2
:101A70001143018370470A460021018B4FF6FF3363
:101A800019404FF6FF7303EA02231943018370479D
:101A90000A460021818B4FF6FB7319401143818365
:101AA00070470A460021818B4FF6FF3319404FF6ED
:101AB000FF7303EA02231943818370470A4600211A
:101AC000018B4FF67F7319401143018370470A461B
:101AD0000021018BC1F30E014FF6FF7303EA0223CD
:101AE0001943018370470A460021818B4FF67F73AB
:101AF00019401143818370470A460021818BC1F34D
:101B00000E014FF6FF7303EA0223194381837047E6
:101B10000A460021018C4FF6FD73194011430184E0
:101B200070470A460021018C4FF6F77319401143A4
:101B3000018470470A460021018C4FF6DF7319407B
:101B40004FF6FF7303EA02131943018470470A46F4
:101B50000021018C4FF67F7319404FF6FF7303EAA3
:101B600002131943018470470A460021018C4FF685
:101B7000FF5319404FF6FF7303EA02231943018410
:101B800070470A460021018C4FF2FF7319404FF64F
:101B9000FF7303EA02231943018470470A460021B8
:101BA000018C4DF6FF7319404FF6FF7303EA0233C1
:101BB00019430184704730B5002301248C40A3B23F
:101BC000048C9C430484048C02FA01F5ADB22C43CE
:101BD000048430BD30B5002304248C40A3B2048CAF
:101BE0009C430484048C02FA01F5ADB22C430484B6
:101BF00030BD70B50346002000241846183001257A
:101C00008D40ACB21D8CA5431D8409B1082909D1B2
:101C100000EB6100056825F0700505600568154357
:101C200005600EE00D1FC5F34E052844056825F438
:101C3000E045056005684FF6FF7606EA0226354363
:101C4000056070BD21B1028842F00202028004E00A
:101C500002884FF6FD731A400280704721B1028856
:101C600042F00402028004E002884FF6FB731A403F
:101C70000280704721B1828842F08002828004E0B5
:101C800082884FF67F731A408280704702884FF631
:101C9000F7731A40028002880A43028070478288E4
:101CA0004FF68F731A40828082880A438280704781
:101CB00002894FF6F8731A40028102890A430281B1
:101CC000704702894FF67F731A40028102890A43E6
:101CD0000281704781847047818570478186704793
:101CE0000187704781877047A0F8401070470288CD
:101CF0004FF6FF431A40028002880A430280704771
:101D00000146888E70470146088F70470146888FCC
:101D100070470146B1F8400070470146888C704713
:101D20000146088D704702460020138A0B400BB114
:101D3000012000E000207047CA430282704730B59E
:101D40000246002000230024158A05EA0103958934
:101D500005EA010413B10CB1012000E0002030BD00
:101D6000CA4302827047000010B50446FB48844213
:101D700009D101218803FEF719FF00214FF48040AB
:101D8000FEF714FF32E0F648844209D101214804ED
:101D9000FEF719FF00214FF40030FEF714FF25E095
:101DA000F048844209D101218804FEF70CFF00218C
:101DB0004FF48020FEF707FF18E0EB48844209D17A
:101DC0000121C804FEF7FFFE00214FF40020FEF7BA
:101DD000FAFE0BE0E548844208D101210805FEF730
:101DE000F2FE00214FF48010FEF7EDFE10BD2DE94C
:101DF000F04786B005460E460024A24600BFA14625
:101E00000027B08900B100BF2F462C8A4CF6FF7026
:101E10000440F08804432C82AC894EF6F310044051
:101E2000B08831890843718908430443AC81AC8A86
:101E30004FF6FF400440B0890443AC8201A8FEF78E
:101E40002EFEC648874202D1DDF810A001E0DDF881
:101E50000CA0A88900F4004040B10AEBCA0000EBD6
:101E60000A1031684900B0FBF1F807E00AEBCA003C
:101E700000EB0A1031688900B0FBF1F86420B8FB70
:101E8000F0F004012009642101FB1089A88900F405
:101E9000004040B1322000EBC900B0FBF1F000F08F
:101EA0000700044308E0322000EB09106421B0FB76
:101EB000F1F000F00F0004432C8106B0BDE8F0877C
:101EC0004FF41651016000218180C18001810C21F5
:101ED000418100218181704710B502460020108A9F
:101EE0004FF2FF0318400B884C8823438C88234310
:101EF000CC8823431843108210BD0021018041800B
:101F00008180C180704721B1828942F40052828170
:101F100004E082894DF6FF731A4082817047F0B564
:101F20000346002400260025002040F66A17B94227
:101F300000D100BF1846C1F3421401F01F0601276B
:101F400007FA06F5012C01D10C3004E0022C01D176
:101F5000103000E014301AB107682F43076002E028
:101F60000768AF430760F0BD1AB1838A0B438382D1
:101F700002E0838A8B4383827047028A4FF6F073B4
:101F80001A400282028A0A430282704782894FF213
:101F9000FF731A40828182890A438281704721B18E
:101FA000828942F00202828104E082894FF6FD7349
:101FB0001A4082817047028A4FF6DF731A4002820C
:101FC000028A0A430282704721B1028A42F48042A7
:101FD000028204E0028A4BF6FF731A4002827047C5
:101FE000C1F308028280704701468888C0F3080068
:101FF0007047818941F0010181817047028BD2B223
:102000000283028B42EA012202837047028B02F4B0
:102010007F420283028B0A430283704721B1828A86
:1020200042F02002828204E0828A4FF6DF731A4077
:102030008282704721B1828A42F01002828204E0DB
:10204000828A4FF6EF731A408282704721B1828AEA
:1020500042F00802828204E0828A4FF6F7731A4047
:102060008282704721B1828942F40042828103E07A
:102070008289C2F30E028281704721B1828A42F4C2
:102080000062828204E0828A4FF2FF731A408282E9
:102090007047828A4FF6FB731A408282828A0A4313
:1020A0008282704721B1828A42F00202828204E079
:1020B000828A4FF6FD731A408282704702460020E2
:1020C000B1F5007F00D100BF13880B400BB1012098
:1020D00000E00020704701F40072B2F5007F00D1EB
:1020E00000BFCA430280704770B502460024002337
:1020F0000025002040F66A16B14200D100BFC1F3AE
:10210000421501F01F03012606FA03F3012D02D147
:102110009689334006E0022D02D1168A334001E051
:10212000968A33400C12012606FA04F416883440CD
:1021300013B10CB1012000E0002070BD10B50022E9
:10214000002340F66A14A14200D100BF0A12012404
:102150009440A3B2DC43048010BD0000003801406D
:102160000044004000480040004C00400050004047
:10217000482002F0A7F900F0DFF800F037F900F08E
:10218000D1FE012224A1254804F091FD0121084639
:10219000FEF7F2FC06F014FC00BF06F05EFC01281E
:1021A000FBD106F052FC00201D4908701DA007F06D
:1021B0008FFA01F022FA01F0B9FA01F00EFA01F0FB
:1021C0008FF92349234801F0D3FD23A007F080FABB
:1021D00027A007F07DFA00241CE0641C4FF47A70FD
:1021E00094FBF0F540F6B83094FBF0F100FB1140A1
:1021F00040B9072095FBF0F100FB1150C6B2304604
:1022000000F021F903F09BF826480078012801D15D
:1022100001F0EBFBE1E70000303A0000E8060020A7
:10222000D90600202020D2B0BBF0CDF8C2E7CACA40
:10223000C5E4B0E620CDF8C2E7B3F5CABCBBAF2019
:1022400044656D6F2056312E30200D0A00000000CD
:10225000650000205D00002020D3A6D3C3B3CCD0FE
:10226000F2D6B4D0D0D6D0A1ADA1AD200D0A0000D9
:1022700020D4DA4945E4AFC0C0C6F7D6D0CAE4C816
:10228000EB205735353030B5C44950BECDBFC9B746
:10229000C3CECA77656220536572766572200D0AD7
:1022A0000000000028000020704700BFFEE700BFCC
:1022B000FEE700BFFEE700BFFEE7704770477047CC
:1022C000704710B501218807FFF739FD28B101F0EB
:1022D000F2FA01218807FFF743FD10BD10B5202059
:1022E000FEF714F900B31148007878B910201049AE
:1022F000486108200F49086001200C490870082037
:102300000C49086010200A4908610AE00748007873
:10231000012806D108200749091D08600220034949
:1023200008702020FEF703F910BD0000D906002038
:10233000001001401014014000B585B0012144F2A5
:102340000400FEF719FC4FF40070ADF810001820DF
:102350008DF8130003208DF8120004A92148FEF720
:102360004FF94FF48060ADF8100004208DF8130091
:1023700004A91C48FEF744F94FF4E1300090002016
:10238000ADF80400ADF80600ADF80800ADF80C009B
:102390000C20ADF80A0069461348FFF728FD01211B
:1023A0001148FFF7B0FD05B000BD70B504460D46FD
:1023B000E1B20D48FFF714FE00BF40210A48FFF7C5
:1023C0007DFE0028F9D0204670BD10B5044600BF40
:1023D00020210548FFF772FE0028F9D00248FFF7D8
:1023E00003FE10BD000801400038014008B501217E
:1023F0000820FEF7C1FB2020ADF8000010208DF86A
:10240000030003208DF8020069462248FEF7F8F821
:102410000120ADF8000069461E48FEF7F1F80220E1
:10242000ADF8000069461B48FEF7EAF8202119487C
:10243000FEF793F901211748FEF78FF9022115489D
:10244000FEF78BF908BD10B5044604F0010020B179
:1024500020211048FEF783F903E020210D48FEF704
:102460007CF904F0020020B101210A48FEF777F957
:1024700003E001210748FEF770F904F0040020B1E1
:1024800002210448FEF76BF903E002210148FEF740
:1024900064F910BD000C014008B54FF4E060FDF791
:1024A00053FF1C208DF8000000208DF80100032050
:1024B0008DF8020001208DF803006846FDF749FF02
:1024C00008BD0EB501210846FEF763FB4FF47A7094
:1024D000ADF804004720ADF800000020ADF806007C
:1024E000ADF8020069464FF08040FEF703FE01217F
:1024F0008807FFF721FC012211469007FFF771F9C9
:1025000001218807FFF752F900210120FEF741FB66
:102510000EBD00002DE9F04106460D46304606F09E
:1025200015FD0746002402E0305D2855641CBC42BE
:10253000FADB0020E855BDE8F08110B50346002025
:1025400002E01C5C1454401C8842FADB0024545402
:1025500010BD2DE9F04180460D4616461F4600206D
:10256000044611E004EB840005EB8001404606F0D0
:10257000F4FC38B904EBC40000EB041006EBC00017
:10258000BDE8F081601C0446BC42EBDB00BFF7E70E
:1025900000B5D9B04FF4B07101A806F0A2FC042038
:1025A0008DF8040054A9F7A0FFF7B4FF002000F055
:1025B000AEFE4FF4B072002101A800F0F8FD0A2031
:1025C00001F0C3FF59B000BDF0B5ADF6540D07469C
:1025D0000020CDF8EC06CDF8F006CDF8E406CDF8F5
:1025E000E806CDF8DC06CDF8E006CDF8D406CDF847
:1025F000D8064FF47A71BBA806F073FC4FF42F7124
:102600000CA806F06EFC4FF4B07200210DF2F460DD
:1026100000F032FD0A2001F098FF0DF2EC62062175
:102620000DF2F560FFF789FF0DF2E46206210DF26D
:10263000FC60FFF782FF0DF2DC6206210DF20470F0
:10264000FFF77BFF0DF2D46206210DF20C70FFF74D
:1026500074FF0DF2EC6206210DF2F560FFF76DFFDD
:10266000CAA10CA807F044F8002521E0C5EB05112C
:102670000DF2137000EB410608AA0C213046FFF75B
:102680005CFF08A806F062FC00B910E003AA122162
:1026900006F10C00FFF751FF03A808A92B460CAA6E
:1026A000CDE90010BAA10CA807F022F800BF6D1CFC
:1026B0000A2DDBDB0CA806F049FC0446012C04D0F3
:1026C0005D21601E0CAA115402E05D200CA9085582
:1026D0009DF83F0808B1B8A100E0B9A10CAA9DF887
:1026E00012070DF2D463CDE90730CDE909219DF839
:1026F0000B0708B1B0A100E0B1A19DF80A070DF2E7
:10270000DC629DF803370BB1ABA300E0ACA3CDE9CD
:102710000332CDE905019DF802070DF2E4619DF851
:10272000FB260AB1A4A200E0A5A2CDE900210290F7
:102730009DF8F40608B1A0A000E0A1A002460DF2A9
:10274000EC63A149BBA806F0D3FFBBA9384602F051
:10275000F7FB0DF6540DF0BD2DE9FF4FE1B00E462D
:10276000154698464FF0000A0020089000274FF4C5
:10277000B072002109A800F07FFC0A2001F0E5FEFC
:102780000024F5E104EBC40000EB041005EBC002EB
:1027900004EB840006EB80018CA006F099FF04EBAB
:1027A000840106EB81008BA106F0D7FBA0B96A4635
:1027B00014215CA8FFF7C1FE04EBC40000EB041079
:1027C00005EBC001684606F0C8FB10B9012008906F
:1027D000CDE100200890CEE104EB840106EB8100FE
:1027E0007EA106F0BAFB58B904EBC40101EB041159
:1027F00005EBC10006F0EAFBC0B28DF82400B6E19B
:1028000004EB840106EB810077A106F0A6FB50B92A
:1028100004EBC40101EB041105EBC1000DF125012E
:10282000FFF778FEA3E104EB840106EB810071A1C0
:1028300006F093FB58B904EBC40101EB041105EB5E
:10284000C10006F0C3FBC0B28DF82B008FE104EB92
:10285000840106EB810069A106F07FFB48B904EB17
:10286000C40101EB041105EBC1000BA9FFF752FEF7
:102870007DE104EB840106EB810064A106F06DFBB1
:1028800058B904EBC40101EB041105EBC10006F0DB
:102890009DFBC0B28DF8320069E104EB840106EBC8
:1028A00081005DA106F059FB58B904EBC40101EBAE
:1028B000041105EBC10006F089FBC0B28DF83300AE
:1028C00055E104EB840106EB810055A106F045FBC0
:1028D00048B904EBC40101EB041105EBC1000DA9DB
:1028E000FFF718FE43E104EB840106EB810050A1E1
:1028F00006F033FB58B904EBC40101EB041105EBFE
:10290000C10006F063FBC0B28DF83A002FE104EB82
:10291000840106EB810049A106F01FFB58B904EBC6
:10292000C40101EB041105EBC10006F04FFBC0B27E
:102930008DF83B001BE104EB840106EB810041A113
:1029400006F00BFB48B904EBC40101EB041105EBE5
:10295000C1000FA9FFF7DEFD09E104EB840106EBDE
:1029600081003CA106F0F9FA58B904EBC40101EB6F
:10297000041105EBC10006F029FBC0B28DF842003E
:10298000F5E06DE061646D696E0000005B000000C1
:1029900025737B226964223A25642C226E616D6561
:1029A000223A222573222C22636F6465223A222563
:1029B00073227D2C00000000747275650000000019
:1029C00066616C7365000000405203082573202582
:1029D000730A00007061737377640000646B5F7347
:1029E0007769746368000000646B5F6D5F7061738A
:1029F00073776400646B5F70315F7300646B5F704A
:102A0000315F70617373776400000000646B5F7006
:102A1000315F74696D650000646B5F70325F7300D5
:102A2000646B5F70325F70617373776400000000E5
:102A3000646B5F70325F74696D650000646B5F701A
:102A4000335F7300646B5F70335F706173737764BF
:102A500000000000646B5F70335F74696D65000097
:102A600004EB840106EB8100C4A106F076FA58B9A4
:102A700004EBC40101EB041105EBC10006F0A6FA5A
:102A8000C0B28DF86F0172E004EB840106EB8100A7
:102A9000BEA106F062FA98B904EBC40000EB041082
:102AA00005EBC00999F800003038C0EB00120DF1B9
:102AB000430000EB420109F10100FFF72BFD56E056
:102AC00004EB840106EB8100B4A106F046FA98B944
:102AD00004EBC40000EB041005EBC009484606F007
:102AE00075FAC0EB00110DF1430000EB410B1E2104
:102AF000584606F0F6F93AE004EB840106EB810053
:102B0000AAA106F02AFAB8B96A4614215CA8FFF710
:102B100014FD04EBC40000EB041005EBC001684693
:102B200006F01BFA18BB27B15CA93846FFF7F2FC88
:102B30001DE04FF0010A1AE004EB840106EB81006E
:102B40009FA106F00AFA90B9BAF1010F09D104EB7E
:102B5000C40101EB041105EBC1005CA9FFF7DAFC2D
:102B600005E004EBC40000EB041005EBC007641C97
:102B70004445FFF607AE00BF002000F0C8FB4FF44D
:102B8000B072002109A800F012FB92A1619802F036
:102B9000D7F965B0BDE8F08F2DE9F043F7B00546F1
:102BA0000F46904699464FF4B072002106A800F0F7
:102BB00063FA002410E0C4EB04110DF1370000EBC0
:102BC000410602AA0C213046FFF7B7FC02A806F026
:102BD000BDF900B902E0641C0A2CECDB00BF0A2C32
:102BE00004D17FA15EA806F083FD0DE0142101A8A9
:102BF00006F077F901A800F001FF01AB22467FA1A2
:102C00005EA806F075FD00BF5EA9284602F098F99F
:102C100077B0BDE8F0832DE9F043E1B081460D4681
:102C2000164698464FF4B072002109A800F024FA25
:102C30000A2001F08AFC002443E004EBC40000EB0E
:102C4000041006EBC00204EB840005EB8001AFF238
:102C5000842006F03DFD04EB840105EB81006DA1AD
:102C600006F07BF948B904EBC40101EB041106EB53
:102C7000C10006F0ABF9074622E004EB840105EB46
:102C8000810066A106F069F948B904EBC40000EBC5
:102C9000041006EBC00105A806F06DF910E004EB86
:102CA000840105EB81005FA106F057F940B904EB00
:102CB000C40000EB041006EBC001684606F05BF9A7
:102CC000641C4445B9DBC7EB07120DF1430000EB70
:102CD000420105A8FFF71EFCC7EB07120DF14300E8
:102CE00000EB420000F10C016846FFF713FC0020E6
:102CF00000F00DFB4FF4B072002109A800F057FA64
:102D00004AA1484602F01CF9484601F095F861B026
:102D1000BDE8F0832DE9F04104460D4616461F46F6
:102D2000204602F067FB204601F086F8BDE8F081FE
:102D300070472DE9F04104460D4616461F463EA158
:102D4000204602F0FDF8BDE8F0812DE9F041804613
:102D50000C4615461E4633462A46214639A0FFF743
:102D6000F8FB0746394639A006F0F7F818B139469E
:102D700039A006F0F2F8BDE8F081000076697369C9
:102D8000746F725F737769746368000072656E6157
:102D90006D655F64657669636500000064656C65F8
:102DA00074655F64657669636500000061646D69E0
:102DB0006E5F6F6C645F7061737377640000000016
:102DC00061646D696E5F6E65775F70617373776460
:102DD00000000000B1A3B4E6B3C9B9A62100000009
:102DE0007B226D7367223A22D7EEB6E0B0F3B6A825
:102DF0003130CCA8C9E8B1B8227D00007B22696ED1
:102E0000646578223A25642C226D6163223A22257A
:102E100073227D00696E6465780000006E616D65E7
:102E200000000000636F646500000000B0F3B6A806
:102E3000B3C9B9A6210000006170695F7265626F55
:102E40006F7400006D6574686F640000666C617378
:102E5000685F777269746500666C6173685F72653C
:102E60006164000010B5F3A006F032FC002010BD34
:102E700010B504464FF48050F849086009E0F7495E
:102E80000868411EF54A116018B9FFF7EBFFC0B2A0
:102E900010BD0221F248FEF722F80028EFD02146AB
:102EA000EF48FDF7C9FF4FF48050EC49086009E096
:102EB000EA490868411EE94A116018B9FFF7D2FFD4
:102EC000C0B2E5E70121E648FEF709F80028EFD097
:102ED000E348FDF7B3FFC0B2DAE72DE9F041002483
:102EE0000025002600271021DE48FDF738FC9F2032
:102EF000FFF7BEFFFF20FFF7BBFF0546FF20FFF7F0
:102F0000B7FF0646FF20FFF7B3FF07461021D5485D
:102F1000FDF723FC280440EA062040EA0704204687
:102F2000BDE8F08100B587B000BF00BF01210803F4
:102F3000FDF722FE01210420FDF71EFE1020ADF852
:102F4000040003208DF8060010208DF8070001A969
:102F5000C448FDF755FB01210420FDF70DFE20209C
:102F6000ADF8040018208DF8070001A9BD48FDF751
:102F700047FB01210420FDF7FFFD4020ADF80400D0
:102F800001A9B848FDF73CFB01210420FDF7F4FD41
:102F90008020ADF8040001A9B248FDF731FB1021F3
:102FA000B048FDF7DAFB0020ADF808004FF482705E
:102FB000ADF80A000020ADF80C000220ADF80E00BC
:102FC0000120ADF810004002ADF812000820ADF865
:102FD00014000020ADF816000720ADF8180002A973
:102FE0009F48FDF753FE01219D48FDF7F4FEFFF7D2
:102FF00074FF9D49884207D19C48007820F0010069
:103000009A49087007B000BD9848007840F0010068
:1030100096490870F6E710B500BF00BFFFF75DFFE7
:103020009149884206D19148007820F001008F49EB
:10303000087010BD8D48007840F001008B49087081
:10304000F7E7024600BF00BF8AB1012A0BD0022A6F
:1030500002D0032A0CD103E04FF48050088008E02E
:103060000120086005E04FF4C060086001E000E066
:1030700000BF00BF0020704770B505460C461646DD
:1030800010217848FDF76BFB0320FFF7F1FEC4F336
:103090000740FFF7EDFEC4F30720FFF7E9FEE0B2BB
:1030A000FFF7E6FE04E0FF20FFF7E2FE28706D1C4C
:1030B0003000A6F10106F6D110216A48FDF74DFB5C
:1030C00070BD70B506460C46154600BF00BF674888
:1030D000007800F0010008B1032070BD04F5007411
:1030E0002A0321033046FFF7C7FF0020F5E710B59C
:1030F000002410215B48FDF732FB0520FFF7B8FEE6
:103100004FF480505549086000BFFF20FFF7B0FE24
:10311000044652490868411E504A116010B9FFF731
:10312000A1FE10BD04F001000028EED110214D4891
:10313000FDF713FB00BFF4E710B510214948FDF778
:103140000EFB0620FFF794FE10214648FDF705FB15
:1031500010BD70B505460C461646FFF7EDFF102171
:103160004048FDF7FCFA0220FFF782FEC4F3074057
:10317000FFF77EFEC4F30720FFF77AFEE0B2FFF709
:1031800077FEB6F5807F01DD4FF4807603E0287886
:10319000FFF76EFE6D1C3000A6F101018EB2F6D174
:1031A00010213048FDF7D9FAFFF7A1FF70BD2DE9D6
:1031B000F05F07460E4614464FF00008C146C2466F
:1031C0000025AB4606F0FF0ACAF10000C5B2204652
:1031D000E11704EB1161C1F30728E11704EB11615A
:1031E0000912A4EB012101F0FF09BAF1000F3FD150
:1031F000B8F1000F05D1224631463846FFF7A9FF46
:1032000083E009E04FF4807231463846FFF7A1FFB2
:1032100006F5807607F580775FEA0800A8F10101DE
:1032200001F0FF08EED14A4631463846FFF791FFDC
:103230006BE000003C3C2D464C4153482D4552521A
:103240004F522D3E3E205350492054696D656F7595
:1032500074206572726F72210A0000002C00002039
:1032600000300140000801401740EF00300000200E
:10327000B8F1000F18D1A94510DDA9EB050000F049
:10328000FF0B2A4631463846FFF763FF2E442F4492
:103290005A4631463846FFF75CFF36E02246314653
:1032A0003846FFF756FF30E0601B84B22046E11736
:1032B00004EB1161C1F30728E11704EB1161091256
:1032C000A4EB012101F0FF092A4631463846FFF7F9
:1032D00040FF2E442F4409E04FF4807231463846B7
:1032E000FFF737FF06F5807607F580775FEA08007D
:1032F000A8F1010101F0FF08EED1B9F1000F04D0EF
:103300004A4631463846FFF724FFBDE8F09F10B526
:103310000446FFF711FFFFF7EAFE10216D48FDF7A5
:103320001EFA2020FFF7A4FDC4F30740FFF7A0FD1D
:10333000C4F30720FFF79CFDE0B2FFF799FD1021D1
:103340006448FDF70AFAFFF7D2FE10BD2DE9F041FF
:1033500006460C46174600BF00BF04F5007425035F
:103360002846FFF7D4FF4FF4805229463046FFF736
:103370001EFF0020BDE8F08110B5FFF7DDFE102133
:103380005448FDF7ECF9C720FFF772FD10215148B2
:10339000FDF7E3F9FFF7ABFE10BD10B500241021D7
:1033A0004C48FDF7DCF9AB20FFF762FDFF20FFF78B
:1033B0005FFDFF20FFF75CFDFF20FFF759FDFF20B9
:1033C000FFF756FD044610214248FDF7C6F9204696
:1033D00010BD10B5044610213E48FDF7C0F903208A
:1033E000FFF746FDC4F30740FFF742FDC4F3072093
:1033F000FFF73EFDE0B2FFF73BFD10BD10B5FF202B
:10340000FFF736FD10BD10B504464FF48050324929
:10341000086008E030490868411E2F4A116010B961
:10342000FFF720FD10BD02212C48FDF758FD0028B4
:10343000F0D021462948FDF7FFFC4FF48050264983
:10344000086008E024490868411E234A116010B949
:10345000FFF708FDE6E701212048FDF740FD0028C1
:10346000F0D01E48FDF7EAFCDCE710B51021194842
:10347000FDF775F9B920FFF7FBFC10211548FDF7A2
:103480006CF910BD10B510211248FDF768F9AB209A
:10349000FFF7EEFC10210F48FDF75FF910BD2DE995
:1034A000F04105460C4626786778A6F1B000C0EBDF
:1034B000001101EB401007EB4000A1384FEA401823
:1034C00008F5805120222846FFF7D6FD0020BDE8F0
:1034D000F0810000000801402C0000200030014075
:1034E00008B5FE48FE490A68026089888180FD4966
:1034F0000968C0F80610FC490968C0F80A10FB49C1
:103500000968C0F80E10FA490968C0F81210F948A5
:10351000007810B9F8A006F0DBF8F648007801282A
:1035200022D1FD480078012818D1FCA006F0D0F87F
:10353000EA48FE49D1F80610C0F80610FB49D1F858
:103540000A10C0F80A10F949D1F80E10C0F80E1090
:10355000F649D1F81210C0F8121005E0F4A006F0F8
:10356000B7F8E5A006F0B4F80120DC498876002120
:10357000DA48C1760A3000F09BFAD8480E3000F0E5
:1035800087FAD648801D00F0A5FAD64800F0BDFAAB
:10359000D448C0780090D348837842780178ECA072
:1035A00006F096F8D04800F09EFACF48C078009018
:1035B000CD48837842780178EDA006F089F8CB48B1
:1035C00000F06EFAC948C0780090C8488378427805
:1035D0000178EFA006F07CF808BD10B5BF48C049DF
:1035E0000A6802608988818000F06BFACF48BC4984
:1035F0000A6802608988818010BD00B587B001210A
:103600000802FDF7B9FA01214FF48470FDF7B4FA0E
:1036100001218803FDF7BDFA4FF40050ADF8040016
:1036200003208DF8060018208DF8070001A9E04856
:10363000FCF7E6FF4FF48040ADF8040001A9DC4838
:10364000FCF7DEFF4FF40040ADF8040001A9D848B4
:10365000FCF7D6FF4FF40070ADF8040010208DF891
:10366000070001A9D348FCF7CBFF0020ADF8080004
:103670004FF48270ADF80A000020ADF80C00022073
:10368000ADF80E000120ADF810004002ADF81200B8
:103690000820ADF814000020ADF816000720ADF8A2
:1036A000180002A9C448FDF7F1FA0121C248FDF74C
:1036B00092FB4FF40040ADF8040003208DF80600A3
:1036C00010208DF8070001A9BA48FCF799FF4FF4C4
:1036D0000041B848FDF741F84FF48070ADF80400A0
:1036E00003208DF8060048208DF8070001A9B14895
:1036F000FCF786FF07B000BD10B504462CB94FF4A7
:103700000071AC48FDF72BF805E0012C03D16102F4
:10371000A848FDF722F810BD10B50020FFF7ECFF18
:1037200010BD10B50120FFF7E7FF10BD10B54FF435
:103730000041A048FDF713F8022000F006FF4FF407
:1037400000419C48FDF709F84FF4C86000F0D6FE30
:1037500010BD10B5044600BF02219748FDF7BFFB1E
:103760000028F9D021469448FDF766FB00BF0121EF
:103770009148FDF7B4FB0028F9D08F48FDF75EFBB8
:10378000C0B210BD10B504462046FFF7E2FF10BDE1
:1037900070B504460D46FFF7BFFFC4F30740FFF7BF
:1037A000F1FFC4F30720FFF7EDFF04F0F801091D56
:1037B000C8B2FFF7E7FF2846FFF7E4FFFFF7B1FFC6
:1037C00070BD70B504460025FFF7A6FFC4F307409F
:1037D000FFF7D8FFC4F30720FFF7D4FF04F0F80089
:1037E000FFF7D0FF0020FFF7CDFF0546FFF799FF59
:1037F000284670BD2DE9F04104460F4615460026C7
:1038000015B96EA005F064FFFFF786FFC4F307400B
:10381000FFF7B8FFC4F30720FFF7B4FF04F0F80187
:10382000091DC8B2FFF7AEFF002604E0B85DFFF740
:10383000A9FF701C86B2AE42F8DBFFF772FF284684
:10384000BDE8F0812DE9F04104460F4615460026FB
:1038500015B95AA005F03CFFFFF75EFFC4F307401F
:10386000FFF790FFC4F30720FFF78CFF04F0F80088
:10387000FFF788FF002605E00020FFF783FFB8551B
:10388000701C86B2AE42F7DBFFF74BFF2846BDE85F
:10389000F08110B5FEF715FEFEF7FEFD012108468A
:1038A000FDF777F910BD10B5FFF7F3FF10BD10B5A8
:1038B000FFF7EFFF10BD47480068401C454908600E
:1038C00008460068B0F57A7F06D3002008604248B9
:1038D0000068401C404981E086E000001817002085
:1038E000340000203A0000203E000020420000206A
:1038F000460000205200002020CAB9D3C3B6A8D287
:10390000E5B5C44950D0C5CFA2C5E4D6C3573535B7
:1039100030300D0A000000005300002020495020E4
:1039200066726F6D20444843500D0A0096170020C0
:103930002044484350D7D3B3CCD0F2CEB4D4CBD06C
:10394000D02CBBF2D5DFB2BBB3C9B9A60D0A0000BB
:10395000205735353030204950B5D8D6B7202020F3
:103960003A2025642E25642E25642E25640D0A0038
:1039700020573535303020D7D3CDF8D1DAC2EB20FF
:103980003A2025642E25642E25642E25640D0A0018
:1039900020573535303020CDF8B9D82020202020D0
:1039A0003A2025642E25642E25642E25640D0A00F8
:1039B000000C01400020014000380040556E657841
:1039C00070656374656432206C656E67746820305E
:1039D0000D0A000054000020580000200860124822
:1039E0000078401C10490870704770B50FA005F0B2
:1039F0006FFE002044682546A84770BD1FB50446E9
:103A00000F4840790E4909790D4AD2780C4B9B78C2
:103A1000CDE90032CDE9021009484378027809A1C6
:103A2000204605F065FE1FBD5C00002020CFB5CD0F
:103A3000B3D6D8C6F4D6D0A1ADA1AD0D0A00000012
:103A400034000020253032783A253032783A25305B
:103A500032783A253032783A253032783A25303289
:103A60007800000010B5044621460020FFF790FEC4
:103A700010BD10B58020FFF7F5FF10BD0146DC48F2
:103A800030F8110070470146DA4830F811007047ED
:103A900010B50446042221469001FFF7ABFE10BD8D
:103AA00010B50446042221469001FFF7CBFE10BD5D
:103AB00010B50446042221464FF4A060FFF79AFE99
:103AC00010BD10B50446062221464FF41060FFF7E2
:103AD00091FE10BD10B50446042221464FF47060DB
:103AE000FFF788FE10BD10B50446042221464FF4AE
:103AF000A060FFF7A7FE10BD10B5044606222146C0
:103B00004FF41060FFF79EFE10BD10B5044604226E
:103B100021464FF47060FFF795FE10BD10B54FF4CD
:103B2000A850FFF74EFE10BD10B50446210A4FF411
:103B3000C850FFF72DFEE1B24FF4D050FFF728FE3A
:103B400010BD10B5044621464FF4D850FFF720FEB3
:103B500010BD70B50446FFF7E1FF60EA0400C5B28E
:103B600029464FF4A850FFF713FE70BD70B5044608
:103B70000D46290A41F2082202EB4410FFF708FE25
:103B8000E9B241F2083202EB4410FFF701FE70BDCA
:103B900070B504460D4641F2086101EB4410294618
:103BA000FFF7F6FD70BD10B504464FF4027101EB4E
:103BB0004410FFF706FE10BD70B504460D464FF4E5
:103BC000027101EB44102946FFF7E2FD70BD10B50C
:103BD00004464FF4427101EB4410FFF7F2FD10BDB3
:103BE00070B504460025002600BF42F2080101EB33
:103BF0004410FFF7E6FD064642F2081101EB4410BF
:103C0000FFF7DFFD00EB062086B27EB142F208012D
:103C100001EB4410FFF7D5FD054642F2081101EB18
:103C20004410FFF7CEFD00EB052085B2B542DCD194
:103C3000284670BD70B504460025002600BF42F23C
:103C4000086101EB4410FFF7BCFD064642F2087123
:103C500001EB4410FFF7B5FD00EB062086B27EB104
:103C600042F2086101EB4410FFF7ABFD054642F25A
:103C7000087101EB4410FFF7A4FD00EB052085B2AD
:103C8000B542DCD1284670BD2DE9F04104460F460F
:103C900016460025A8462EB9214657A005F018FD66
:103CA000BDE8F08142F2084101EB4410FFF789FDC5
:103CB000054642F2085101EB4410FFF782FD00EB8C
:103CC000052085B2280200EB441000F110083246AE
:103CD00039464046FFF78EFDA81985B2290A42F2FF
:103CE000084202EB4410FFF753FDE9B242F20852DA
:103CF00002EB4410FFF74CFD00BFD1E72DE9F04186
:103D000004460F4616460025A8462EB9214642A075
:103D100005F0DEFCBDE8F08142F6080101EB44103D
:103D2000FFF74FFD054642F6081101EB4410FFF77F
:103D300048FD00EB052085B2280200EB441000F19D
:103D40001808324639464046FFF77CFDA81985B26F
:103D5000290A42F6080202EB4410FFF719FDE9B206
:103D600042F6081202EB4410FFF712FD00BFD1E744
:103D70002DE9F04105460E460027B846002433E001
:103D8000295D41F6087202EB4410FFF701FD315D39
:103D900041F6086202EB4410FFF7FAFC00201549D7
:103DA00021F81400124921F81400B7F5804F07DC00
:103DB000285D4FF6FF7101EA80200E4921F81400BA
:103DC000B8F5804F07DC305D4FF6FF7101EA8020C7
:103DD000074921F81400074830F814000744044844
:103DE00030F814008044641C082CC9DBBDE8F08165
:103DF000561700204617002043483A2025642055D6
:103E00006E657870656374656431206C656E677487
:103E10006820300D0A00000043483A2025642055F0
:103E20006E657870656374656432206C656E677466
:103E30006820300D0A00000010B504464FF484716C
:103E400001EB44101021FFF7A3FC00BF4FF4847175
:103E500001EB4410FFF7B5FC0028F7D14FF40271D5
:103E600001EB4410FF21FFF793FC10BD2DE9F04159
:103E700004460D461646984605F00F0001280FD05F
:103E800005F00F0002280BD005F00F00032807D023
:103E900005F00F00042803D005F00F00052841D1DC
:103EA0002046FFF7C9FF45EA0801082202EB44104B
:103EB000FFF76EFC76B1310A4FF4816202EB4410D9
:103EC000FFF766FCF1B24FF4A16202EB4410FFF77A
:103ED0005FFC15E0FE480088401CFD4908800A464A
:103EE0001288110A4FF4816202EB4410FFF750FC74
:103EF000F74A11784FF4A16202EB4410FFF748FC37
:103F00004FF4847101EB44100121FFF741FC00BF25
:103F10004FF4847101EB4410FFF753FC0028F7D1F4
:103F2000012700E000273846BDE8F08170B504465F
:103F30004FF4427101EB4410FFF743FC132811D1F9
:103F40004FF4847101EB44100221FFF721FC00BF04
:103F50004FF4847101EB4410FFF733FC0028F7D1D4
:103F6000012500E00025284670BD2DE9F0410546F9
:103F70000C4616462078FF2808D16078FF2805D126
:103F8000A078FF2802D1E078FF2808D0207828B94F
:103F9000607818B9A07808B9E07800B10EB90027A8
:103FA0005CE00127217840F6084202EB4510FFF75C
:103FB000EFFB617840F6085202EB4510FFF7E8FB93
:103FC000A17840F6086202EB4510FFF7E1FBE178CB
:103FD00040F6087202EB4510FFF7DAFB310A41F2B6
:103FE000080202EB4510FFF7D3FBF1B241F20812D1
:103FF00002EB4510FFF7CCFB4FF4847101EB451049
:104000000421FFF7C5FB00BF4FF4847101EB45109D
:10401000FFF7D7FB0028F7D117E04FF4427101EB0F
:104020004510FFF7CEFB172800D116E02846FFF712
:10403000BAFD00F0080040B14FF4027101EB4510E9
:104040000821FFF7A5FB002707E04FF4427101EBC1
:104050004510FFF7B6FB1528DFD100BF3846BDE895
:10406000F08110B504464FF4847101EB441008212F
:10407000FFF78EFB00BF4FF4847101EB4410FFF794
:10408000A0FB0028F7D110BD2DE9F0470446884673
:10409000164600250027A9462046FFF7F4FCB0424B
:1040A00004DA2046FFF7EFFC074600E0374600BF82
:1040B0002046FFF795FD81464FF4427101EB441015
:1040C000FFF77FFB0546172D03D01C2D01D00027DD
:1040D00001E0B945ECDB00BF3A4641462046FFF718
:1040E000D3FD4FF4847101EB44102021FFF750FB06
:1040F00000BF4FF4847101EB4410FFF762FB00280E
:10410000F7D113E04FF4427101EB4410FFF759FB74
:104110000546172D0AD01C2D08D06EA005F0D8FA40
:104120002046FFF789FE0020BDE8F0874FF40271BA
:1041300001EB4410FFF745FB00F010001028E1D11F
:104140004FF4027101EB44101021FFF721FB4FF4F3
:10415000027101EB44101021FFF71AFB3846E3E728
:104160002DE9F04104460E4615460027002D15DDC9
:104170002A4631462046FFF7C1FD4FF4847101EB1A
:1041800044104021FFF704FB00BF4FF4847101EBA2
:104190004410FFF716FB0028F7D12F463846BDE83C
:1041A000F0812DE9F0470446894616461D46089FD2
:1041B0004FF000082046FFF766FCB04204DA2046C4
:1041C000FFF761FC804600E0B046287828B968789F
:1041D00018B9A87808B9E87800B117B94FF0000805
:1041E00063E0297840F6084202EB4410FFF7D0FA6A
:1041F000697840F6085202EB4410FFF7C9FAA97833
:1042000040F6086202EB4410FFF7C2FAE97840F684
:10421000087202EB4410FFF7BBFA390A41F20802B8
:1042200002EB4410FFF7B4FAF9B241F2081202EBC4
:104230004410FFF7ADFA424649462046FFF724FDF9
:104240004FF4847101EB44102021FFF7A1FA00BF65
:104250004FF4847101EB4410FFF7B3FA0028F7D153
:1042600012E04FF4027101EB4410FFF7AAFA00F0DC
:10427000080048B14FF4027101EB44101821FFF718
:1042800087FA0020BDE8F0874FF4027101EB44107B
:10429000FFF797FA00F010001028E2D14FF40271F6
:1042A00001EB44101021FFF773FA4046EAE72DE9CD
:1042B000FC5F05468A4691461E46DDF830800027A1
:1042C0000024A346B9F1000F71DD42F608010BE0AE
:1042D0004A00002053454E445F4F4B2050726F629E
:1042E0006C656D21210D0A0001EB4510FFF769FA9D
:1042F000044642F6081101EB4510FFF762FA00EBA5
:10430000042084B2200200EB451000F1180B0821B4
:1043100001EB4510FFF755FA00F00700022804D022
:10432000032845D0042878D178E008226946584609
:10433000FFF788FA04F1080084B29DF8000030709D
:104340009DF8010070709DF80200B0709DF80300A8
:10435000F0709DF80400A8F800009DF8050098F89A
:10436000001000EB0120A8F800009DF806709DF8F1
:10437000070000EB072087B2200200EB451000F198
:10438000180B3A4651465846FFF75CFAE01984B2DA
:10439000210A42F6080202EB4510FFF7F9F9E1B2F3
:1043A00042F6081202EB4510FFF7F2F96AE07AE0F4
:1043B000062269465846FFF745FAA01D84B29DF8CB
:1043C000000030709DF8010070709DF80200B07020
:1043D0009DF80300F0709DF804709DF8050000EB57
:1043E000072087B2200200EB451000F1180B3A4677
:1043F00051465846FFF726FAE01984B2210A42F6E0
:10440000080202EB4510FFF7C3F9E1B242F60812C9
:1044100002EB4510FFF7BCF934E032E002226946B6
:104420005846FFF70FFAA01C84B29DF800709DF863
:10443000010000EB0720801E87B240F2EA5087425D
:1044400004DD1AA005F044F900BFFEE7200200EBEE
:10445000451000F1180B3A4651465846FFF7F2F95D
:10446000E01984B2210A42F6080202EB4510FFF778
:104470008FF9E1B242F6081202EB4510FFF788F916
:1044800000E000BF00BF4FF4847101EB45104021F4
:10449000FFF77EF900BF4FF4847101EB4510FFF781
:1044A00090F90028F7D13846BDE8FC9F646174613B
:1044B0005F6C656E206F76657220313531340D0A80
:1044C000000000004FF0E021096921F004014FF0E5
:1044D000E0221161C21700EB5272C2F3C702FE4B19
:1044E0001A701946097801EB4102C2EBC1114FF66F
:1044F000FF7202EAC101F94A118070470146F74A8A
:1045000012884A434FF0E0235A6100229A61012247
:104510001A6100BF4FF0E022106900F001021AB1E9
:1045200000F48032002AF5D000224FF0E0231A6117
:104530009A61704710B5044604E04FF47A70FFF7B3
:10454000DDFF641E002CF8D110BD0146E24A12784E
:104550004A434FF0E0235A6100229A6101221A6116
:1045600000BF4FF0E022106900F001021AB100F420
:104570008032002AF5D000224FF0E0231A619A61C0
:1045800070470146302905DB392903DCA1F13000F1
:10459000C0B27047612905DB662903DCA1F1570031
:1045A000C0B2F6E7412905DB462903DCA1F137005B
:1045B000C0B2EEE70846ECE730B502460B460024F1
:1045C00005E012F8010BFFF7DCFF04FB0304107891
:1045D0000028F6D1A0B230BD30B502460B4600240B
:1045E00005E012F8010BFFF7CCFF04FB0304107881
:1045F0000028F6D1204630BD2DE9F04104460D4695
:104600001646701EC7B220223146284604F062FCCE
:1046100000BF0A2094FBF0F100FB11403030C2B221
:104620003846791ECFB22A540A2094FBF0F080B2AB
:10463000041EEEDCBDE8F0812DE9F04104460F4692
:10464000904626460CB1207810B90020BDE8F081D4
:104650000BE03078FFF795FF0546002D03DBBD42E8
:1046600001DA761C01E00020F0E730780028F0D174
:10467000B9B22046FFF7A0FFC8F800000120E5E727
:1046800010B50B46002104E0445C9C4200D142542A
:10469000491C445C002CF7D110BD014600200A06DD
:1046A000100C40EA11207047014600200806C1F3B3
:1046B000072240EA0240C1F3074240EA022040EAF2
:1046C000116070472DE9F04781460E4617461D469A
:1046D0003146484604F01CFC0446304604F036FCE3
:1046E00004443946204604F013FC8246AAEB040039
:1046F0001FFA80F842462146284604F01BFC0020A1
:1047000005F80800BDE8F0872DE9F04188B00646BD
:104710000F463146684604F02EFC6C4600251BE02F
:104720006FA1204604F030FC04462078302809D1DF
:104730006078782806D11021A01CFFF73DFF00F01B
:10474000FF0805E00A212046FFF736FF00F0FF08CA
:1047500007F8058000246D1C042DE1DB08B0BDE8DE
:10476000F0811CB5044620215E4804F0BAFBE0B29B
:10477000C4F30721220EC4F30743CDE900105AA168
:10478000584804F0B5FF57481CBD1CB5044610211D
:10479000584804F0A6FBE0B2C4F30721220EC4F38C
:1047A0000743CDE9001054A1524804F081FF51485D
:1047B0001CBDF0B58FB006460F4601AC314601A8CE
:1047C00004F0D9FB00252AE045A1204604F0DCFBDB
:1047D000044614B900200FB0F0BD207830280AD16B
:1047E0006078782807D10EAA1021A01CFFF724FFBB
:1047F00048B90020EFE70EAA0A212046FFF71CFF68
:1048000008B90020E7E70E9878550E98002802DBDB
:104810000E98FF2801DD0020DDE700246D1C042D2B
:10482000D2DB0120D7E700B503461846FFF735FF76
:1048300000BD00B503461846FFF736FF00BD10B5B2
:1048400004462046FFF7EFFF10BD10B50446204692
:10485000FFF7EFFF10BDF0B502460D46C5F34F065A
:10486000002400210EE012F811304FF6FF7707EA1E
:104870000323012707EB4107D75D1F44BBB21C444C
:104880004F1CB9B2B142EEDB05F001071FB112F8BF
:10489000113004EB0324A0B200EB1447FF43B8B27D
:1048A000F0BDF1B500246D4600BF30E004F5A06016
:1048B000FEF787FF295D00EA010704F57060FEF747
:1048C00080FF064604F5A060FEF77BFF0640B74276
:1048D0001CD00120F8BD00006E00002070000020F8
:1048E0002E0000006617002025642E25642E256406
:1048F0002E25640086170020253033642E253033A2
:10490000642E253033642E2530336400641C042C5F
:10491000CCDB0020F8BD00002DE9F0410446002664
:10492000002512E0605DA05525280CD1A91C605C13
:10493000FFF727FE0746691C605CFFF722FE07EBC6
:104940000010A055AD1C761C6D1C605D0028E9D1DF
:10495000A055BDE8F081FEB506460C46174640F26C
:10496000B451304604F0BDFA012C01D1AA4D16E035
:10497000022C01D1A9A512E0032C01D1B64D0EE005
:10498000042C01D1B5A50AE0052C01D1C24D06E0E9
:10499000062C01D1C1A502E0072C00D1CE4D3A462C
:1049A000CEA1684604F0A4FE2946304604F0E3FA9E
:1049B0006946304604F0A0FAC9A1304604F09CFADA
:1049C000FEBD70B504460D46C7A1284604F0A0FA06
:1049D00010B10920207074E0C4A1284604F098FAB0
:1049E00020B9C4A1284604F093FA10B10120207028
:1049F00067E0C2A1284604F08BFA10B102202070B3
:104A00005FE0C0A1284604F083FA20B9BFA1284680
:104A100004F07EFA10B10320207052E0BDA12846B8
:104A200004F076FA20B9BDA1284604F071FA10B15D
:104A30000420207045E0BBA1284604F069FA10B1BB
:104A4000052020703DE0B9A1284604F061FA20B9A4
:104A5000B8A1284604F05CFA10B10620207030E0BE
:104A6000B6A1284604F054FA10B10720207028E0BF
:104A7000B4A1284604F04CFA20B9B4A1284604F0A9
:104A800047FA10B1082020701BE0B2A1284604F0BC
:104A90003FFA20B9B0A1284604F03AFA10B1032039
:104AA00020700EE0ADA1284604F032FA20B9ADA185
:104AB000284604F02DFA10B10120207001E00020FA
:104AC000207070BD70B504460E46A8A1304604F0B3
:104AD0005BFA054615B90020207070BDA4A12846D8
:104AE00004F03BFA20B1A3A1284604F036FA38B905
:104AF000012020709DA1002004F046FA054625E023
:104B00009DA1284604F029FA20B19DA1284604F071
:104B100024FA38B90220207094A1002004F034FA5D
:104B2000054613E098A1284604F017FA20B198A191
:104B3000284604F012FA38B96AA1002004F024FAD9
:104B400005460320207001E00020207015B90020E8
:104B50002070C2E72946A01C04F00DFA00BFBCE794
:104B60002DE9FE4F05460F460024DFF82C92A246A1
:104B7000002000900190029005B117B90020BDE817
:104B8000FE8F6B4685A286A12846FFF79BFD0A2172
:104B90006846FFF711FD824651A1284604F0B8F996
:104BA00005462D1D002005F80A003946284604F068
:104BB000AFF904465CB3384604F0C8F9401C04441D
:104BC0007CA1204604F0A4F906461EB9204604F054
:104BD000BDF906194FF00008301B1FFA80F8B8F134
:104BE000000F10D0002009F8080042462146484630
:104BF00004F0A0F94846FFF78FFE20222B214846FB
:104C0000FFF73EFD05E0002089F8000001E00020EC
:104C1000B5E74846B3E700002C5303084854545006
:104C20002F312E3120323030204F4B0D0A436F6E22
:104C300074656E742D547970653A20696D6167658D
:104C40002F6769660D0A436F6E74656E742D4C652F
:104C50006E6774683A200000785303084854545033
:104C60002F312E3120323030204F4B0D0A436F6EE2
:104C700074656E742D547970653A20696D6167654D
:104C80002F6A7065670D0A436F6E74656E742D4CE4
:104C9000656E6774683A20000854030848545450FD
:104CA0002F312E3120323030204F4B0D0A436F6EA2
:104CB00074656E742D547970653A20766964656FF9
:104CC0002F6D7065670D0A436F6E74656E742D4CA1
:104CD000656E6774683A2000C4530308256C64004D
:104CE0000D0A0D0A000000002E706C002E68746D15
:104CF0006C0000002E68746D000000002E6769666D
:104D0000000000002E746578740000002E74787422
:104D1000000000002E6A7065670000002E6A706750
:104D2000000000002E737766000000002E6D706595
:104D3000670000002E6D7067000000002E70646632
:104D4000000000002E636769000000002E43474901
:104D5000000000002E6A73002E4A53002E786D6CFE
:104D6000000000002E584D4C000000002000000004
:104D70004745540067657400484541440000000001
:104D80006865616400000000504F5354000000004B
:104D9000706F737400000000142700200D0A0000DB
:104DA000436F6E74656E742D4C656E6774683A203F
:104DB00000000000260000000FB410B592B00446B9
:104DC00015A8407B15A9097B15AAD27A9DF85E30FB
:104DD000CDE90E32CDE9101015A8407C15A9097C4B
:104DE00015AAD27B9DF86230CDE90A32CDE90C10CC
:104DF00015A8417A027AC0799DF85A30CDE906307B
:104E0000CDE908219DF859109DF858009DF85720CC
:104E10009DF85630CDE90232CDE904019DF85500E8
:104E20009DF85410CDE9001015A8C37E9DF86E20A2
:104E3000F949204604F05CFC12B010BC5DF814FB8C
:104E40002DE9FF5F0E4692469B460E9D002028608E
:104E5000F2A1009804F05CF807467F1CF0A13846E8
:104E600004F056F88046B8F1000F0ED1384604F031
:104E70006DF8044622463946304604F05BF80020BF
:104E80003055012004B0BDE8F09FA8EB070422468E
:104E90003946304604F04EF8601E305C2F2803D1AE
:104EA0000021601E315401E00020305508F1010856
:104EB00038E000BFDBA1404604F02AF88146B9F192
:104EC000000F00D13AE0A9EB0804296801EB810149
:104ED0000AEB81002246414604F02CF800202968A4
:104EE00001EB81010AEB8101085509F10109A7EBEA
:104EF0000904296801EBC10202EB01110BEBC100AF
:104F00002246494604F016F80020296801EBC10248
:104F100002EB01110BEBC10108552868401C286009
:104F200007F10108C0A1404603F0F2FF0700C0D11D
:104F3000009804F00BF800994718BBE70120A1E79F
:104F40002DE9F04780460D460026B84F284603F06D
:104F5000FDFF0446224603213846FFF7FCFC384695
:104F600003F0F4FF1FFA80F94A4639464046FFF73E
:104F70008BF800BF1DE0B4F5806F12D94046FEF7F4
:104F800026FE172801D0BDE8F087A9194FF48062EA
:104F90004046FFF779F806F5806086B2A4F5806494
:104FA00007E0A2B2A9194046FFF76EF8301986B2A1
:104FB000241B002CDFD100BFE5E72DE9F0470646B2
:104FC0000F464FF00009994C01223946984801F0EC
:104FD00099FE984908700846007828B196A1304695
:104FE000FFF7AEFFBDE8F0879148C5682A4601216A
:104FF0002046FFF7B0FC204603F0A8FF1FFA80F818
:10500000424621463046FFF73FF816E08E4B4FF4FC
:1050100080628E49864801F02AFF8649087008465A
:10502000007810B98848006800B907E08648008811
:1050300082B286493046FFF727F8E7E700BF7C4891
:1050400002F064F900BFCDE72DE9F047ADF58E5DC4
:1050500006460F464FF4C87141F21000684403F051
:1050600040FF4FF47A611CA803F03BFF202113A8F6
:1050700003F037FF4FF00009CA4640F2B4517448BC
:1050800003F02FFF694D724C39462046FFF71AFD99
:10509000207830B1012815D0022812D0032873D10E
:1050A00046E176226B49284603F002FF284603F0CA
:1050B0004DFF1FFA80F8424629463046FEF7E4FFCE
:1050C00038E100BF1BA81CAB00F6A4720DF58D5192
:1050D0000090A01CFFF7B4FE0DF58D52A11C5EA040
:1050E0001B9B04F0F5FA65A10DF58D5003F035FF1B
:1050F00058B165A10DF58D5003F02FFF28B163A1C4
:105100000DF58D5003F029FF20B963493046FFF7B4
:1051100017FF0CE161A10DF58D5003F01EFF48BB98
:1051200040F2B4514A4803F0DCFE10225E49684662
:1051300003F0BEFE1C225C490C390CA803F0B8FE3B
:1051400043480CA90EC9FFF737FE414803F0FEFEA5
:1051500080463F4B42465549284604F0C9FA284646
:1051600003F0F4FE1FFA80F8424629463046FEF767
:105170008BFFDCE04EA10DF58D5003F0EEFE20B963
:105180003046FDF721FAD2E0D3E04DA10DF58D5068
:1051900003F0E3FE38B91CAA02F57A6130461B9B86
:1051A000FDF7DAFAC3E04AA10DF58D5003F0D5FE04
:1051B00038B91CAA02F57A6130461B9BFDF7ECFC5E
:1051C000B5E047A10DF58D5003F0C7FE38B91CAA14
:1051D00002F57A6130461B9BFDF71DFDA7E044A157
:1051E0000DF58D5003F0B9FE38B91CAA02F57A61AD
:1051F00030461B9BFDF78EFD99E040A10DF58D50CB
:1052000003F0ABFE38B91CAA02F57A6130461B9B4D
:10521000FDF78FFD8BE077E0A05403082F0000001E
:105220003F0000003D00000026000000602100203B
:10523000542B002028060020343034206E6F742058
:10524000666F756E642100002C060020783B0020FC
:10525000AC1B002040A40008706172736555726C2D
:105260002D2D3E5552493A25732020706174683ABD
:10527000257320206C656E3A25640A00696E6465AA
:10528000782E68746D00000000000000696E64658F
:10529000782E68746D6C0000F05603087735353051
:1052A000302E6A7300000000241700202C5D0308D4
:1052B0006765744D6F64656C2E636769000000005C
:1052C0007365744D6F64656C2E6367690000000040
:1052D0006164644465766963652E636769000000F4
:1052E00062696E644465766963652E636769000070
:1052F00076697369746F722E696D67007265626F8B
:105300006F742E636769000072A10DF58D5003F074
:1053100024FE38B91CAA02F57A6130461B9BFDF7C2
:1053200014FD04E00DF58D513046FFF746FE01E017
:1053300000E000BF00BF0DF58E5DBDE8F08770B5E1
:10534000042640F2B451664803F0CBFD644D30466C
:10535000FEF73DFC14280ED004DC002840D01328B2
:1053600045D104E0172807D01C2840D123E030465F
:10537000FEF7DCFD3CE03BE03046FEF714FC00F0BD
:10538000010018B101213046FEF716FC3046FEF749
:1053900051FC041E0EDD224629463046FEF7E0FE93
:1053A00004460020285529463046FFF74DFE30467A
:1053B000FEF757FE1CE03046FEF73CFC041E0BDDFA
:1053C000224629463046FEF7CBFE044600202855EB
:1053D00029463046FFF738FE3046FEF742FE07E02A
:1053E0000023502201213046FEF740FD00E000BFBF
:1053F00000BF70BDF0B5ADF5337D06464822394992
:10540000A1A803F055FDA1A803F0A0FD87B23A467C
:10541000A1A93046FEF738FE00BF334800780228C5
:10542000FBD100BF04203149086020203049486189
:10543000086104202D49091F086020202C4948617B
:10544000086100BF00252CE0002420E000BF0021FF
:105450006000401C01AA1154002002F81400202012
:105460002349486123480068C0F3072002F814006C
:105470002020086148611F480068C0F307216000D0
:10548000401C115420201A49086100BF641CB4F567
:10549000A07FDBDB4FF4207201A93046FEF7F4FD5C
:1054A0006D1CF02DD0DB00200F4908700DF5337D09
:1054B000F0BDFEB505460C461646E078A178627848
:1054C000CDE90021029023782A460B49304604F0AA
:1054D0000FF9FEBD64656275672E636769000000A1
:1054E0006021002058540308D90600201408014008
:1054F00000100140080C01407455030870B50446C3
:10550000012500BF00BF2CB900BF00BFFDF70AFD99
:10551000054601E0012500BF00BF284670BD70B5FB
:10552000044601251CB9FDF776FD054601E001257D
:1055300000BF00BF284670BD2DE9F04104460D466E
:1055400016461F464FF0040834B93A4631462846FD
:10555000FDF7B7FD804602E04FF0040800BF00BF32
:105560004046BDE8F0812DE9F04105460E4617465C
:105570001C464FF0040814B90420BDE8F08135B989
:10558000224639463046FDF7E1FE804602E04FF004
:10559000040800BF00BF4046EFE72DE9F041044694
:1055A0000D46164604272CB931462846FDF749FD1D
:1055B000074601E0042700BF00BF3846BDE8F08180
:1055C000004870477D5FEF4670B503460C4603E028
:1055D00014F8015B03F8015B1500A2F10102F7D199
:1055E00070BD30B5034601E003F8011B1400A2F1C1
:1055F0000102F9D130BDF0B503461C460D4600202E
:1056000000BF1600A2F1010207D014F8017B15F8C3
:1056100001CBA7EB0C063000F3D0F0BD024600E052
:10562000521C107810B110788842F9D11078704768
:105630002DE9F041044600272079F8B1E56A607849
:1056400001232A4604F13001FFF78DFF08B101273D
:1056500014E000202071206A281AA16988420DD226
:10566000E67809E0A0690544607801232A4604F140
:105670003001FFF778FF761E022EF3D23846BDE8E0
:10568000F08170B504460D460026E06AA84210D0AD
:105690002046FFF7CDFF06465EB9607801232A4613
:1056A00004F13001FFF748FF10B14FF0FF3501263C
:1056B000E562304670BD70B504462046FFF7B8FF7E
:1056C0000546002D59D1207803284FD16079012853
:1056D0004CD16289002104F13000FFF782FF55218F
:1056E00084F82E12AA2184F82F12522084F8300058
:1056F00052213120015561213220015541213320B1
:105700000155722184F8141284F81512412184F88D
:105710001612612184F81712217C84F81812208A4D
:10572000010A84F819122069010C84F81A12206900
:10573000010E84F81B12217B84F81C12A089010A37
:1057400084F81D12E068010C84F81E12E068010E56
:1057500084F81F12E069401CE0626078012304F1C4
:105760003001E26AFFF7FFFE0020607160780022DE
:105770001146FFF712FF00B10125284670BD024611
:10578000891E5069801E884201D800207047937896
:10579000906A01FB0300F9E72DE9F05F04460D462E
:1057A000022D02D36069A84202D84FF001098FE0B0
:1057B0004FF0FF392078012804D002283CD003287C
:1057C0007ED157E02F4607EB57076089B7FBF0F013
:1057D000216A00EB010A51462046FFF752FF00B153
:1057E00075E038467F1C6189B0FBF1F201FB1201C4
:1057F00004F1300010F801806089B7FBF0F0216AF5
:1058000000EB010A51462046FFF73BFF00B15EE086
:105810006089B7FBF0F100FB117104F13000405CCE
:1058200048EA002805F0010010B14FEA181001E025
:10583000C8F30B0081464AE0B4F80AA00AEBDA701C
:105840004010B5FBF0F0216A00EB010B59462046F1
:10585000FFF717FF00B13AE068006189B0FBF1F291
:1058600001FB120104F130000E183078717840EA23
:1058700001292CE0B4F80AA04FEAEA700AEB907014
:105880008010B5FBF0F0216A00EB010B5946204671
:10589000FFF7F7FE00B11AE0A8006189B0FBF1F252
:1058A00001FB120104F130000E18F0780006B17807
:1058B00040EA0140717840EA01203178084300E075
:1058C00002E020F0704902E04FF0010900BF00BF84
:1058D0004846BDE8F09F2DE9F05F04460E461746A6
:1058E000022E02D36069B04202D84FF00208B3E042
:1058F0002078012804D0022852D0032872D172E007
:10590000B14609EB59096089B9FBF0F0216A00EB57
:10591000010A51462046FFF7B4FE8046B8F1000F59
:1059200000D098E0484609F101096189B0FBF1F225
:1059300001FB120104F130000D1806F0010020B146
:10594000F9B2287861F31F1000E038462870012072
:1059500020716089B9FBF0F0216A00EB010A514621
:105960002046FFF78EFE8046B8F1000F00D072E0AF
:105970006089B9FBF0F100FB119104F130000D18C2
:1059800006F0010010B1C7F3071005E0287800F019
:10599000F000C7F3032108432870012020715AE06A
:1059A000B4F80AA00AEBDA704010B6FBF0F0216AF6
:1059B00000EB010B59462046FFF763FE8046B8F125
:1059C000000F00D047E070006189B0FBF1F201FBED
:1059D000120104F130000D182F70380A6870012090
:1059E000207138E034E0B4F80AA04FEAEA700AEB1C
:1059F00090708010B6FBF0F0216A00EB010B594665
:105A00002046FFF73EFE8046B8F1000F00D022E0AE
:105A1000B0006189B0FBF1F201FB120104F130002A
:105A20000D18E8780006A97840EA0140697840EA54
:105A300001202978084300F0704007432F70380A8E
:105A40006870380CA870380EE8700120207102E0F0
:105A50004FF0020800BF00BF4046BDE8F09F2DE9AF
:105A6000F04104460E46022E02D36069B04201D8CE
:105A7000022727E0002721E031462046FFF78CFE71
:105A8000054605B91DE0012D01D1022719E0681C6A
:105A900008B9012715E0002231462046FFF71BFF19
:105AA000074607B10DE02069401C30B12069401C59
:105AB0002061607940F0010060712E466069B0425B
:105AC000DAD800BF3846BDE8F0812DE9F04704463A
:105AD0008946B9F1000F06D1E76817B16069B8428D
