:020000040800F2
:100000001022002045010008792200087B22000808
:100010007F220008832200088722000800000000D9
:100020000000000000000000000000008B2200081B
:100030008D220008000000008F2200089122000895
:100040005F0100085F0100085F0100085F01000810
:100050005F0100085F0100085F0100085F01000800
:100060005F0100085F0100085F0100085F010008F0
:100070005F0100085F0100085F0100085F010008E0
:100080005F0100085F0100085F0100085F010008D0
:100090005F0100085F0100085F0100085F010008C0
:1000A0005F0100085F0100085F0100085F010008B0
:1000B000932200085F0100085F0100085F0100084B
:1000C0005F0100085F0100085F0100085F01000890
:1000D0005F010008012300085F0100085F010008BC
:1000E000AD2200085F0100085F0100085F01000801
:1000F0005F0100085F0100085F0100085F01000860
:100100005F0100085F0100085F0100085F0100084F
:100110005F0100085F010008212300085F0100085B
:100120005F0100085F0100085F0100085F0100082F
:10013000DFF80CD006F0AEFA00480047B9210008FD
:10014000102200200648804706480047FEE7FEE7E9
:10015000FEE7FEE7FEE7FEE7FEE7FEE7FEE7FEE777
:1001600047020008310100080CB500200190009002
:100170006C48006840F480306A49086000BF6948F4
:10018000006800F4003000900198401C0190009835
:1001900018B90198B0F5A06FF1D16248006800F479
:1001A000003010B10120009001E000200090009884
:1001B000012843D15C48006840F010005A490860AB
:1001C0000846006820F0030008600846006840F018
:1001D0000200086053484068524948600846406839
:1001E00048600846406840F48060486008464068BF
:1001F00020F47C1048600846406840F4E8104860ED
:100200000846006840F08070086000BF45480068FC
:1002100000F000700028F9D04248406820F0030048
:10022000404948600846406840F00200486000BF0E
:100230003C48406800F00C000828F9D10CBD10B50E
:10024000FFF792FF10BD10B53648006840F001007E
:1002500034490860084640683449084031494860DC
:1002600008460068324908402E4908600846006880
:1002700020F4802008600846406820F4FE004860B2
:100280004FF41F008860FFF7DAFF4FF00060294944
:10029000086010BD10B5002100200022214B5B68D2
:1002A00003F00C0121B1042906D0082928D107E068
:1002B000214B224C236027E01F4B204C236023E07E
:1002C000184B5B6803F47010164B5B6803F48032C4
:1002D000022303EB904022B9194B4343174C236090
:1002E0000DE0104B5B6803F4003323B1144B434320
:1002F000124C236003E0104B4343104C236003E097
:100300000D4B0E4C236000BF00BF064B5B68C3F370
:1003100003130C4CE15C094B1B68CB40074C23607A
:1003200010BD000000100240002002400000FFF855
:10033000FFFFF6FE08ED00E000127A00000000204A
:1003400000093D000400002031490143314A116099
:10035000704770B5002100230F22C47804B32D4CE0
:10036000246804F4E064C4F5E064210AC1F10403E4
:10037000CA40447804FA03F1847814402143090107
:10038000254C0678A155047804F01F050124AC40E3
:1003900005786D11AD0005F1E025C5F8004109E0D3
:1003A000047804F01F050124AC401C4D067876113A
:1003B00045F8264070BD1A4A0A400243154B1B1FE0
:1003C0001A60704739B1134A121D12680243114B6B
:1003D0001B1D1A6006E00F4A121D126882430D4B66
:1003E0001B1D1A607047042808D14FF0E0210969ED
:1003F00041F004014FF0E022116107E04FF0E021ED
:10040000096921F004014FF0E022116170470000FA
:100410000000FA050CED00E000E400E080E100E0FF
:1004200080FFFF1F002044490860091D0860091D66
:100430000860091D086041483F4914310860704751
:1004400000213D498279002A3AD00A4612680368A1
:100450009A430B461A600A1D126803689A430B1DE3
:100460001A60027911440A6803681A430A60324A22
:100470000832126803689A432F4B08331A601A1D1A
:10048000126803689A432C4B0C331A604279102A85
:100490000ED11A1F126803681A43274B08331A60DB
:1004A0001A1D126803681A43234B0C331A600DE0BF
:1004B0002149427911440A6803681A430A6005E039
:1004C000027911440A6803689A430A607047002160
:1004D000016001710C214171002181717047164941
:1004E000103109680143144A103211607047014607
:1004F0000020114A143212680A400AB1012000E0BB
:10050000002070470C4914310860704701460020F4
:100510000022094B1B6803EA0102074B14331B68D6
:100520000B4013B10AB1012000E0002070470249DE
:10053000143108607047000000040140FFFF0F0005
:1005400010B50446CC48844208D10121042000F0B3
:100550002DFB0021042000F029FB46E0C74884421F
:1005600008D10121082000F021FB0021082000F023
:100570001DFB3AE0C248844208D10121102000F05E
:1005800015FB0021102000F011FB2EE0BD48844235
:1005900008D10121202000F009FB0021202000F0DB
:1005A00005FB22E0B848844208D10121402000F038
:1005B000FDFA0021402000F0F9FA16E0B348844229
:1005C00008D10121802000F0F1FA0021802000F004
:1005D000EDFA0AE0AE48844207D10121801500F00F
:1005E000E5FA0021A01500F0E1FA10BD10B50121D7
:1005F000084600F0DBFA0021012000F0D7FA10BD18
:100600002DE9F041024600250026002000230024A9
:10061000002791F803C00CF00F0591F803C00CF00F
:10062000100CBCF1000F03D091F802C04CEA050594
:1006300091F800C0BCF1000F31D0146800202BE00D
:100640004FF0010C0CFA00F3B1F800C00CEA0306FD
:100650009E4220D183004FF00F0C0CFA03F7BC43ED
:1006600005FA03FC4CEA040491F803C0BCF1280F1E
:1006700006D14FF0010C0CFA00FCC2F814C00AE0DD
:1006800091F803C0BCF1480F05D14FF0010C0CFAF2
:1006900000FCC2F810C0401C0828D1D31460B1F887
:1006A00000C0BCF1FF0F34DD546800202EE000F1E3
:1006B000080C4FF0010808FA0CF3B1F800C00CEA7E
:1006C00003069E4221D183004FF00F0C0CFA03F772
:1006D000BC4305FA03FC4CEA040491F803C0BCF1E6
:1006E000280F05D100F1080C08FA0CF8C2F81480A4
:1006F00091F803C0BCF1480F07D100F1080C4FF08E
:10070000010808FA0CF8C2F81080401C0828CED363
:100710005460BDE8F0814FF6FF71018002218170C5
:100720000421C17070470246002093680B400BB152
:10073000012000E0002070470146886880B27047C1
:1007400002460020D3680B400BB1012000E00020DE
:1007500070470146C86880B27047016170474161C7
:1007600070470AB1016100E041617047C1607047A4
:100770004FF480320A4382618161826182698269B9
:10078000704702460020434B18684FF680731840AC
:1007900040EA021008433F4B186070473E49C86169
:1007A0007047F0B50A46002300240021002500F020
:1007B0000046B6F1004F02D1364EF16901E0354EE8
:1007C0007168C0F3034583B200F44016B6F5401FCC
:1007D00008D121F070612F4E766826F070662D4F9B
:1007E0007E6012E000F48016B6F5801F06D1032665
:1007F00006FA05F4A14341F0706106E0460D3601AA
:1008000003FA06F6B14341F0706122B1460D36019C
:1008100003FA06F6314300F00046B6F1004F02D16C
:100820001C4EF16101E01B4E7160F0BD30B500223D
:100830008B071C0F0F2303FA04F2164B08338C109E
:1008400053F824309343134C08348D1044F825306A
:1008500023468C1053F824308C07240F00FA04F43C
:1008600023430C4C08348D1044F8253030BD0A4920
:10087000DC3108607047000000080140000C0140B6
:10088000001001400014014000180140001C01400C
:10089000002001400000014000002042DF480068C5
:1008A00040F00100DD49086008464068DC49084026
:1008B000DA49486008460068DA490840D7490860C4
:1008C0000846006820F4802008600846406820F44C
:1008D000FE0048604FF41F0088607047CF490968E8
:1008E00021F48031CD4A11601146096821F480213C
:1008F0001160B0F5803F03D0B0F5802F0ED106E037
:10090000C649096841F48031C44A116007E0C3490F
:10091000096841F4A021C14A116000E000BF00BF96
:10092000704710B501460022002300204A11012A19
:1009300002D1BA4C236806E0022A02D1B74C236ADE
:1009400001E0B64C636A01F01F02012494401C4090
:100950000CB1012000E0002010BD38B5002000904F
:100960000024002500BF3120FFF7DBFF054600987B
:10097000401C00900098B0F5A06F01D0002DF2D07F
:100980003120FFF7CEFF08B1012400E0002420460B
:1009900038BD01460020A14A106820F0F80040EA66
:1009A000C10010607047A0490860704702460020EF
:1009B0009A4B586820F47C1042EA01031843974B85
:1009C0005860704798490866704701460020934A6E
:1009D000506820F003000843506070478F4840681B
:1009E00000F00C007047014600208C4A506820F04F
:1009F000F00008435060704701460020874A506865
:100A000020F4E06008435060704701460020834AAC
:100A1000506820F4605040EAC1005060704729B12E
:100A20007E4A527A02437D4B5A7204E07B4A527AE4
:100A300082437A4B5A7270477B49D83108607047BD
:100A400001460020754A506820F440400843506039
:100A500070470021714A20321170704A82F82010CC
:100A6000012802D004280AD104E001216B4A203277
:100A7000117005E00521694A2032117000E000BFC5
:100A800000BF70476949086070476449096A0143BB
:100A9000624A11627047654944390860704730B551
:100AA00000210022002400235C4D6D6805F00C013C
:100AB00021B1042905D0082923D105E05C4D05604A
:100AC00022E05B4D05601FE0544D6D6805F4701227
:100AD000524D6D6805F48034022505EB92421CB935
:100AE000544D554305600BE04C4D6D6805F40035E1
:100AF0001DB1504D5543056002E04D4D5543056015
:100B000002E04B4D056000BF00BF444D6D6805F02D
:100B1000F0010909484D6B5C0568DD4045603F4DBB
:100B20006D6805F4E061090A434D6B5C4568DD4082
:100B300085603A4D6D6805F46051C90A3E4D6B5CA5
:100B40004568DD40C560354D6D6805F44041890B51
:100B50003A4D6B5CC568B5FBF3F5056130BD29B155
:100B60002E4A526902432D4B5A6104E02B4A5269C6
:100B700082432A4B5A61704729B1284A926902433D
:100B8000264B9A6104E0254A92698243234B9A617D
:100B9000704729B1214AD2690243204BDA6104E04F
:100BA0001E4AD26982431D4BDA61704729B11B4A44
:100BB000D2680243194BDA6004E0184AD2688243D3
:100BC000164BDA60704729B1144A12690243134B7D
:100BD0001A6104E0114A12698243104B1A6170478E
:100BE00012494039086070470F49C86470470B4983
:100BF000C87170470948406A40F0807007494862F0
:100C0000704701460020054A92680A400AB1012057
:100C100000E00020704701498872704700100240D0
:100C20000000FFF8FFFFF6FE00004242800442424F
:100C300000127A0000093D0014000020240000206A
:100C400010B50446BE48844208D101218014FFF744
:100C5000ADFF0021A014FFF7A9FF16E0B9488442B8
:100C600008D101210014FFF7AEFF00212014FFF787
:100C7000AAFF0AE0B448844207D10121C013FFF75C
:100C8000A2FF0021E013FFF79EFF10BD10B5002268
:100C9000028802F441520B884C8823438C882343FA
:100CA000CC8823430C8923434C8923438C892343D9
:100CB000CC8923431A430280838B4FF2FF74234075
:100CC00083830B8A038210BD2DE9F04F85B0054662
:100CD0000C464FF0000902274FF000084FF0010BBF
:100CE0000026B246A88B4FF240010840A88302209C
:100CF0002884B5F81C90A068022801D100BF38E014
:100D0000A08810B94FF0010B01E04FF0020B8D48A5
:100D1000854200D100E000BF6846FFF7C0FEDDF865
:100D200000A0E088B0F5007F0AD14FEA1A2000EB5E
:100D300080004000A168B0FBF1F0401D86B20BE0DE
:100D40004FEA4B10BAFBF0F000EB80004000A168C6
:100D5000B0FBF1F0401D86B20A20B6FBF0F606F0BB
:100D60000108A6EB0800C0F34F074FF6FF7000EA3A
:100D70000828022F01DBFF2F02DD02274FF00008B9
:100D8000E08840EA080038432884A088A189084305
:100D9000618808432188084340F4006040EA09095B
:100DA000A5F81C9005B0BDE8F08F002101804180BE
:100DB0008180C180018141818181C18107210182BE
:100DC00070470021018041808180C18002218160C3
:100DD00000218181704721B1028842F040020280E7
:100DE00004E002884FF6BF731A400280704721B1B9
:100DF000828B42F48062828304E0828B4FF6FF3361
:100E00001A408283704730B5002400230C1101255D
:100E1000A540ABB21AB185881D43858002E0858864
:100E20009D43858030BD1AB183880B43838002E0E7
:100E300083888B438380704781817047014688890E
:100E400070474FF6FF62914204D0028842F48072EC
:100E5000028004E002884FF6FF631A400280704768
:100E600021B1828842F00402828004E082884FF639
:100E7000FB731A408280704702884FF2FF731A405A
:100E8000028002880A4302807047018841F4805141
:100E90000180704721B1028842F40052028004E0D0
:100EA00002884DF6FF731A40028070470246002008
:100EB000012901D0108B00E0908A70470146088A12
:100EC0007047B1F5804F04D1028842F4804202801D
:100ED00004E002884BF6FF731A4002807047024616
:100EE000002013890B400BB1012000E00020704767
:100EF000CA4302817047F0B5024600200024002357
:100F0000002501F00F070126BE40B4B20B110126E7
:100F10009E40B3B2968806EA03051689264016B1AC
:100F20000DB1012000E00020F0BD10B5002201F05D
:100F30000F040123A3409AB2D343038110BD0000E4
:100F40000030014000380040003C004010B504462D
:100F5000FE48844208D10121C014FFF727FE00217A
:100F6000E014FFF723FEC4E0B4F1804F08D1012163
:100F70000846FFF728FE00210120FFF724FEB8E015
:100F8000F348844208D101210220FFF71CFE002112
:100F90000220FFF718FEACE0EE48844208D10121A0
:100FA0000420FFF710FE00210420FFF70CFEA0E054
:100FB000E948844208D101210820FFF704FE0021FE
:100FC0000820FFF700FE94E0E448844208D10121A4
:100FD0001020FFF7F8FD00211020FFF7F4FD88E056
:100FE000DF48844208D101212020FFF7ECFD0021D9
:100FF0002020FFF7E8FD7CE0DA48844208D1012197
:101000004014FFF7D3FD00216014FFF7CFFD70E01F
:10101000D548844209D10121C804FFF7C7FD00214A
:101020004FF40020FFF7C2FD63E0D048844209D1AD
:1010300001210805FFF7BAFD00214FF48010FFF7EA
:10104000B5FD56E0CA48844209D101214805FFF7A1
:10105000ADFD00214FF40010FFF7A8FD49E0C548A1
:10106000844208D101214020FFF7ADFD002140203E
:10107000FFF7A9FD3DE0C048844208D1012180204E
:10108000FFF7A1FD00218020FFF79DFD31E0BB4867
:10109000844208D101218015FFF795FD0021A0159C
:1010A000FFF791FD25E0B648844209D101210804EB
:1010B000FFF77CFD00214FF48030FFF777FD18E04B
:1010C000B048844209D101214804FFF76FFD002197
:1010D0004FF40030FFF76AFD0BE0AB48844208D1C3
:1010E00001218804FFF762FD00214FF48020FFF703
:1010F0005DFD10BD00220288944B98420ED0994BA2
:1011000098420BD0B0F1804F08D0914B984205D057
:10111000904B984202D0904B984204D14FF68F7377
:101120001A404B881A438D4B984207D08C4B9842FB
:1011300004D04FF6FF431A40CB881A4302808B88B5
:1011400083850B880385814B98420BD0854B984251
:1011500008D08B4B984205D08A4B984202D08A4BDC
:10116000984201D10B7A038601238382704770B5C0
:10117000002400220023058C4FF6FE7635400584BE
:10118000028C8388048B4FF68F752C40B51E2C4043
:101190000D882C43751E2A400D892A434D882A4309
:1011A0006A4DA8420BD06F4DA84208D0744DA8429A
:1011B00005D0744DA84202D0734DA84213D14FF60A
:1011C000F7752A404D892A434FF6FB752A408D88D2
:1011D0002A434FF6FF652B404FF6FF552B408D8974
:1011E0002B43CD892B4383800483CD88858602845D
:1011F00070BD70B5002400220023058C4FF6EF76F9
:1012000035400584028C8388048B48F6FF752C409A
:101210004FF6FF452C400D884FF6FF7606EA052570
:101220002C434FF6DF752A400D8906EA05152A433F
:101230004D8806EA05152A43444DA84202D0494D7F
:10124000A8421DD14FF67F752A404D894FF6FF7693
:1012500006EA05152A434FF6BF752A408D8806EA2F
:1012600005152A434FF6FF352B404FF2FF752B40F3
:101270008D8906EA85052B43CD8906EA85052B4332
:1012800083800483CD880587028470BD70B50024F7
:1012900000220023058C4FF6FF6635400584028C42
:1012A0008388848B4FF68F752C404FF6FC752C404D
:1012B0000D882C434FF6FF552A400D894FF6FF76D7
:1012C00006EA05252A434D8806EA05252A431F4DCF
:1012D000A84202D0234DA8421DD14FF2FF752A40EB
:1012E0004D894FF6FF7606EA05252A434FF6FF356E
:1012F0002A408D8806EA05252A434EF6FF752B40C5
:101300004DF6FF752B408D8906EA05152B43CD89D7
:1013100006EA05152B4383808483CD888587028464
:1013200070BD70B5002200230024058C4EF6FF76B8
:1013300035400584038C8488828B48F6FF752A40EB
:101340004FF6FF452A400D8820E00000002C0140A8
:101350000004004000080040000C00400010004065
:101360000014004000340140004C01400050014096
:101370000054014000180040001C004000200040C4
:101380000040014000440140004801404FF6FF7614
:1013900006EA05252A434DF6FF752B400D8906EA1E
:1013A00005352B434D8806EA05352B43FA4DA842F7
:1013B00002D0FA4DA84208D14BF6FF752C408D891A
:1013C0004FF6FF7606EA85152C4384808283CD880C
:1013D000A0F84050038470BD828B4FF2FF331A4057
:1013E0008283828B4FF6FF7303EA01231A438283C1
:1013F0007047F0B50C461546002200210026078CE8
:101400004EF6FF7C07EA0C070784828B018C4FF6AF
:10141000FF7707EA043640F6FF473A404FF6FF777A
:1014200007EA05273A434FF6FF7707EA03373A43BF
:10143000D94FB8420ED0D94FB8420BD0B0F1804F3F
:1014400008D0D74FB84205D0D64FB84202D0D64FB9
:10145000B84206D14DF6FF77394046F480573943FC
:1014600005E047F6FF57394044F4805739438283FB
:101470000184F0BD828B4FF6F3731A408283828B16
:101480000A4382837047F0B50C46154600220021BE
:101490000026078C4FF6FF6C07EA0C070784828B47
:1014A000018C4FF6FF7707EA04264FF60C773A4097
:1014B0004FF6FF7707EA03172F433A43B64FB84278
:1014C0000ED0B64FB8420BD0B0F1804F08D0B44F19
:1014D000B84205D0B34FB84202D0B34FB84206D19C
:1014E0004FF6FF57394046F48077394305E04FF215
:1014F000FF57394044F48077394382830184F0BD3B
:10150000028B4FF2FF331A400283028B4FF6FF73B8
:1015100003EA01231A4302837047F0B50C461546CF
:10152000002200210026078C4FF6EF7C07EA0C070B
:101530000784028B018C4FF6FF7707EA041640F60A
:10154000FF473A404FF6FF7707EA03373A434FF633
:10155000FF7707EA05273A438F4FB8420ED08F4FE7
:10156000B8420BD0B0F1804F08D08D4FB84205D0B3
:101570008C4FB84202D08C4FB84206D14FF6DF777D
:10158000394046F01007394305E04FF65F773940A0
:1015900044F01007394302830184F0BD028B4FF6FB
:1015A000F3731A400283028B0A4302837047F0B53B
:1015B0000C46154600220021068C4FF6FE773E4071
:1015C0000684028B018C4FF60C7632407E1C06EAB4
:1015D00003162E433243704EB0420ED06F4EB042CF
:1015E0000BD0B0F1804F08D06D4EB04205D06D4E9B
:1015F000B04202D06C4EB04206D14FF6FD7631407B
:1016000044F00106314305E04FF6F576314044F0F1
:101610000106314302830184F0BD70B505460C46D6
:101620005D4885420ED05D4885420BD0B5F1804FB4
:1016300008D05B48854205D05A48854202D05A48B6
:10164000854200D100E000BF208850B92389A288DC
:1016500061882846FFF7ABFFE1882846FFF79EFF29
:1016600025E0208804280AD12389A2886188284699
:10167000FFF753FFE1882846FFF742FF17E0208875
:1016800008280AD12389A28861882846FFF7FBFE33
:10169000E1882846FFF7EEFE09E02389A2886188E9
:1016A0002846FFF7A6FEE1882846FFF795FE70BDA5
:1016B0002DE9F04105460C4600260127608808B94F
:1016C000022600E00026A088012801D1022700E0C0
:1016D00001272088A0B92389A28861882846FFF7BE
:1016E00066FFE1882846FFF759FF23893A463146CD
:1016F0002846FFF712FFE1882846FFF701FF13E0B5
:101700002389A28861882846FFF707FFE1882846D9
:10171000FFF7F6FE23893A4631462846FFF747FF92
:10172000E1882846FFF73AFFBDE8F0810A884B8838
:101730001A438B881A43CB881A430B891A434B8967
:101740001A438B891A43A0F8442070474FF6FF7163
:10175000818000210180C180418001727047002199
:10176000018041808180C180018141818181C1816D
:101770007047002101804180012181800021C180CA
:10178000018170470021018041808180C1800181F9
:101790004181818170470000002C014000340140EC
:1017A0000004004000080040000C004021B1028805
:1017B00042F00102028004E002884FF6FE731A40F4
:1017C0000280704731B1B0F8442042F40042A0F8E2
:1017D000442005E0B0F84420C2F30E02A0F84420F3
:1017E00070471AB183890B43838102E083898B435D
:1017F000838170478182704741EA0203A0F8483034
:1018000070471AB183890B43838102E083898B433C
:101810008381704701894FF6F8721140018170474A
:101820000A46002101894FF68F7319401143018147
:10183000704730B504460D4629462046FFF7F0FFB5
:10184000208940F00700208130BD2DE9F041044699
:101850000D4616461F46602D06D13B4601223146F5
:101860002046FFF75AFE05E03B460122314620465E
:10187000FFF79DFE29462046FFF7D2FF208940F062
:1018800007002081BDE8F08130B50C4600210189B8
:10189000C9B24FF6FF7505EA0325154325432943D1
:1018A000018130BD2DE9F04105460E4617469846A8
:1018B000002443463A4631462846FFF7E5FF2C8987
:1018C0004FF6F870044044F007044FF68F70044060
:1018D00044F070042C81BDE8F081F0B504460D465B
:1018E00016461F463B46324629462046FFF7CCFFA8
:1018F000208940F480402081F0BD018582827047BC
:101900000A46002101884FF68F7319401143018068
:101910007047F0B50C4615461E46002100220023F4
:101920000189028B038C4FF6F877394021434FF63B
:10193000FC473A4040F201173A434FF6DD773B400F
:101940004FF6FF7707EA06172F433B4301810283D7
:101950000384F0BD0A460021018B4FF68F731940B6
:101960001143018370470A460021018B48F6FF733B
:1019700019404FF6FF7303EA0223194301837047AE
:101980000A460021818B4FF68F73194011438183E2
:1019900070470A460021818B48F6FF7319404FF6C5
:1019A000FF7303EA022319438183704721B1028840
:1019B00042F08002028004E002884FF67F731A40F2
:1019C0000280704721B1828842F00402828004E0E4
:1019D00082884FF6FB731A408280704721B182885B
:1019E00042F00802828004E082884FF6F7731A40C2
:1019F0008280704721B1828842F00102828004E037
:101A000082884FF6FE731A40828070470A46002192
:101A1000018B4FF6F77319401143018370470A4653
:101A20000021018B4FF2FF7319404FF6FF7303EA59
:101A300002231943018370470A460021818B4FF628
:101A4000F77319401143818370470A460021818B47
:101A50004FF2FF7319404FF6FF7303EA0223194355
:101A6000818370470A460021018B4FF6FB731940B2
:101A70001143018370470A460021018B4FF6FF3363
:101A800019404FF6FF7303EA02231943018370479D
:101A90000A460021818B4FF6FB7319401143818365
:101AA00070470A460021818B4FF6FF3319404FF6ED
:101AB000FF7303EA02231943818370470A4600211A
:101AC000018B4FF67F7319401143018370470A461B
:101AD0000021018BC1F30E014FF6FF7303EA0223CD
:101AE0001943018370470A460021818B4FF67F73AB
:101AF00019401143818370470A460021818BC1F34D
:101B00000E014FF6FF7303EA0223194381837047E6
:101B10000A460021018C4FF6FD73194011430184E0
:101B200070470A460021018C4FF6F77319401143A4
:101B3000018470470A460021018C4FF6DF7319407B
:101B40004FF6FF7303EA02131943018470470A46F4
:101B50000021018C4FF67F7319404FF6FF7303EAA3
:101B600002131943018470470A460021018C4FF685
:101B7000FF5319404FF6FF7303EA02231943018410
:101B800070470A460021018C4FF2FF7319404FF64F
:101B9000FF7303EA02231943018470470A460021B8
:101BA000018C4DF6FF7319404FF6FF7303EA0233C1
:101BB00019430184704730B5002301248C40A3B23F
:101BC000048C9C430484048C02FA01F5ADB22C43CE
:101BD000048430BD30B5002304248C40A3B2048CAF
:101BE0009C430484048C02FA01F5ADB22C430484B6
:101BF00030BD70B50346002000241846183001257A
:101C00008D40ACB21D8CA5431D8409B1082909D1B2
:101C100000EB6100056825F0700505600568154357
:101C200005600EE00D1FC5F34E052844056825F438
:101C3000E045056005684FF6FF7606EA0226354363
:101C4000056070BD21B1028842F00202028004E00A
:101C500002884FF6FD731A400280704721B1028856
:101C600042F00402028004E002884FF6FB731A403F
:101C70000280704721B1828842F08002828004E0B5
:101C800082884FF67F731A408280704702884FF631
:101C9000F7731A40028002880A43028070478288E4
:101CA0004FF68F731A40828082880A438280704781
:101CB00002894FF6F8731A40028102890A430281B1
:101CC000704702894FF67F731A40028102890A43E6
:101CD0000281704781847047818570478186704793
:101CE0000187704781877047A0F8401070470288CD
:101CF0004FF6FF431A40028002880A430280704771
:101D00000146888E70470146088F70470146888FCC
:101D100070470146B1F8400070470146888C704713
:101D20000146088D704702460020138A0B400BB114
:101D3000012000E000207047CA430282704730B59E
:101D40000246002000230024158A05EA0103958934
:101D500005EA010413B10CB1012000E0002030BD00
:101D6000CA4302827047000010B50446FB48844213
:101D700009D101218803FEF719FF00214FF48040AB
:101D8000FEF714FF32E0F648844209D101214804ED
:101D9000FEF719FF00214FF40030FEF714FF25E095
:101DA000F048844209D101218804FEF70CFF00218C
:101DB0004FF48020FEF707FF18E0EB48844209D17A
:101DC0000121C804FEF7FFFE00214FF40020FEF7BA
:101DD000FAFE0BE0E548844208D101210805FEF730
:101DE000F2FE00214FF48010FEF7EDFE10BD2DE94C
:101DF000F04786B005460E460024A24600BFA14625
:101E00000027B08900B100BF2F462C8A4CF6FF7026
:101E10000440F08804432C82AC894EF6F310044051
:101E2000B08831890843718908430443AC81AC8A86
:101E30004FF6FF400440B0890443AC8201A8FEF78E
:101E40002EFEC648874202D1DDF810A001E0DDF881
:101E50000CA0A88900F4004040B10AEBCA0000EBD6
:101E60000A1031684900B0FBF1F807E00AEBCA003C
:101E700000EB0A1031688900B0FBF1F86420B8FB70
:101E8000F0F004012009642101FB1089A88900F405
:101E9000004040B1322000EBC900B0FBF1F000F08F
:101EA0000700044308E0322000EB09106421B0FB76
:101EB000F1F000F00F0004432C8106B0BDE8F0877C
:101EC0004FF41651016000218180C18001810C21F5
:101ED000418100218181704710B502460020108A9F
:101EE0004FF2FF0318400B884C8823438C88234310
:101EF000CC8823431843108210BD0021018041800B
:101F00008180C180704721B1828942F40052828170
:101F100004E082894DF6FF731A4082817047F0B564
:101F20000346002400260025002040F66A17B94227
:101F300000D100BF1846C1F3421401F01F0601276B
:101F400007FA06F5012C01D10C3004E0022C01D176
:101F5000103000E014301AB107682F43076002E028
:101F60000768AF430760F0BD1AB1838A0B438382D1
:101F700002E0838A8B4383827047028A4FF6F073B4
:101F80001A400282028A0A430282704782894FF213
:101F9000FF731A40828182890A438281704721B18E
:101FA000828942F00202828104E082894FF6FD7349
:101FB0001A4082817047028A4FF6DF731A4002820C
:101FC000028A0A430282704721B1028A42F48042A7
:101FD000028204E0028A4BF6FF731A4002827047C5
:101FE000C1F308028280704701468888C0F3080068
:101FF0007047818941F0010181817047028BD2B223
:102000000283028B42EA012202837047028B02F4B0
:102010007F420283028B0A430283704721B1828A86
:1020200042F02002828204E0828A4FF6DF731A4077
:102030008282704721B1828A42F01002828204E0DB
:10204000828A4FF6EF731A408282704721B1828AEA
:1020500042F00802828204E0828A4FF6F7731A4047
:102060008282704721B1828942F40042828103E07A
:102070008289C2F30E028281704721B1828A42F4C2
:102080000062828204E0828A4FF2FF731A408282E9
:102090007047828A4FF6FB731A408282828A0A4313
:1020A0008282704721B1828A42F00202828204E079
:1020B000828A4FF6FD731A408282704702460020E2
:1020C000B1F5007F00D100BF13880B400BB1012098
:1020D00000E00020704701F40072B2F5007F00D1EB
:1020E00000BFCA430280704770B502460024002337
:1020F0000025002040F66A16B14200D100BFC1F3AE
:10210000421501F01F03012606FA03F3012D02D147
:102110009689334006E0022D02D1168A334001E051
:10212000968A33400C12012606FA04F416883440CD
:1021300013B10CB1012000E0002070BD10B50022E9
:10214000002340F66A14A14200D100BF0A12012404
:102150009440A3B2DC43048010BD0000003801406D
:102160000044004000480040004C00400050004047
:1021700010B535480068401C3349086008460068BF
:102180004FF47A7190FBF1F201FB120098B92E48DE
:10219000006890FBF1F4204604EBD0714910A4EBE9
:1021A000410121B101212948FEF7D7FA03E00121BD
:1021B0002648FEF7D4FA10BD482001F09BFE00F03F
:1021C000E3F800F047F903F06EFF03F057FF012139
:1021D0001020FEF7DEFC03F0E7FB01210846FEF7C6
:1021E000CBFC03F054F800BF03F0A1F80128FBD1A9
:1021F00003F095F800201649087000F08BFF01F0FD
:1022000021F800F07DFF00F049FF1249124801F06B
:10221000C7FA03F0A7FE03F025FF10A004F078FB37
:1022200011E0FFF7A5FF02F0E1FC02F0B9FD02F0BA
:1022300009FF02F08DFF03F036FB0E4800780128FD
:1022400001D101F0C9F8ECE76C000020000C01405E
:1022500070010020A9000020A100002020D3A6D3F7
:10226000C3B3CCD0F2D6B4D0D0D6D0A1ADA1AD20DE
:102270000D0A000068000020704700BFFEE700BFA5
:10228000FEE700BFFEE700BFFEE7704770477047FC
:10229000704710B501218807FFF751FD28B101F003
:1022A00084F801218807FFF75BFD10BD10B54FF4DE
:1022B0008050FEF72BF910B32248007880B94FF414
:1022C00080402149486180112049086001201D4952
:1022D000087000021D49086080011B4908610AE07E
:1022E00018480078012806D100021849091D086025
:1022F0000220144908704FF48050FEF718F910BD01
:1023000010B540F225511248FFF7EEFE38B11048E3
:10231000FFF76AFEC4B221460EA004F0F9FA10BD20
:1023200010B501210C48FFF70AFD40B10B480068C9
:10233000401C0A49086001210748FFF711FD03F01E
:1023400049FE10BD70010020002001401014014022
:10235000003801402563000000100040C00100204B
:1023600008B54FF4E060FDF7EFFF25208DF8000081
:1023700000208DF8010001208DF802008DF8030087
:102380006846FDF7E6FF08BD00B585B0012188036A
:10239000FEF7F2FB01210420FEF7EEFB4FF4007084
:1023A000ADF8100018208DF8130003208DF81200EE
:1023B00004A92648FEF724F94FF48060ADF8100018
:1023C00004208DF8130004A92048FEF719F94FF4F2
:1023D000E13000900020ADF80400ADF80600ADF843
:1023E0000800ADF80C000C20ADF80A00694618484A
:1023F000FFF7FDFCFFF7B4FF012240F2255114481E
:10240000FFF78DFD01211248FFF77DFD05B000BDEE
:1024100070B504460D46E1B20D48FFF7E1FD00BF7F
:1024200080210B48FFF74AFE0028F9D0204670BDF6
:1024300010B5044600BF20210548FFF73FFE0028E5
:10244000F9D00348FFF7D0FD10BD0000000801409F
:102450000038014008B501210820FEF78DFB20203F
:10246000ADF8000010208DF8030003208DF8020065
:1024700069462248FEF7C4F80120ADF8000069461D
:102480001E48FEF7BDF80220ADF8000069461B4863
:10249000FEF7B6F820211948FEF75FF90121174829
:1024A000FEF75BF902211548FEF757F908BD10B594
:1024B000044604F0010020B120211048FEF74FF936
:1024C00003E020210D48FEF748F904F0020020B196
:1024D00001210A48FEF743F903E001210748FEF70E
:1024E0003CF904F0040020B102210448FEF737F95A
:1024F00003E002210148FEF730F910BD000C014055
:102500002DE9F04106460D46304603F03FFE0746F2
:10251000002402E0305D2855641CBC42FADB002038
:10252000E855BDE8F08110B50346002002E01C5CD0
:102530001454401C8842FADB0024545410BD2DE989
:10254000F04180460D4616461F460020044611E025
:1025500004EB840005EB8001404603F01EFE38B911
:1025600004EBC40000EB041006EBC000BDE8F081F2
:10257000601C0446BC42EBDB00BFF7E700B5D9B0F6
:102580004FF4B07101A803F0CCFD04208DF80400D5
:1025900054A9FEA0FFF7B4FF002003F0FAFB4FF4AC
:1025A000B072002101A803F044FB0A2001F0E5FC11
:1025B00059B000BDF0B5ADF2446D07460020CDF82E
:1025C000DC04CDF8E0044FF4FA71BAA803F0A9FDD9
:1025D0004FF42F710BA803F0A4FD4FF4B07200214B
:1025E0000DF2E44003F08AFA0A2001F0C6FC0DF275
:1025F000DC4206210DF2E540FFF795FFE5A10BA8AF
:1026000004F096F9002521E0C5EB05110DF2035009
:1026100000EB410607AA0C213046FFF784FF07A80C
:1026200003F0B4FD00B910E002AA122106F10C007B
:10263000FFF779FF02A807A92B460BAACDE90010E6
:10264000D5A10BA804F074F900BF6D1C0A2DDBDBCB
:102650000BA803F09BFD0446012C04D05D21601EF5
:102660000BAA115402E05D200BA908550BA80DF52B
:10267000C6630DF2DC42D2A10090BAA804F058F96A
:10268000BAA9384602F0E7FB0DF2446DF0BD2DE922
:10269000FF4FE1B00E46154698464FF0000A002065
:1026A000089000274FF4B072002109A803F026FA21
:1026B0000A2001F062FC002433E204EBC40000EBCA
:1026C000041005EBC00204EB840006EB8001C9A0F6
:1026D00004F01EF904EB840106EB8100C7A103F0AE
:1026E0005CFDA0B96A4614215CA8FFF71CFF04EB4F
:1026F000C40000EB041005EBC001684603F04DFD7B
:1027000010B9012008900BE2002008900CE204EBC5
:10271000840106EB8100BBA103F03FFD58B904EB37
:10272000C40101EB041105EBC10003F06FFDC0B261
:102730008DF82400F4E104EB840106EB8100B4A1E0
:1027400003F02BFD50B904EBC40101EB041105EBC0
:10275000C1000DF12501FFF7D3FEE1E104EB840197
:1027600006EB8100ADA103F018FD58B904EBC401DC
:1027700001EB041105EBC10003F048FDC0B28DF878
:102780002B00CDE104EB840106EB8100A5A103F051
:1027900004FD48B904EBC40101EB041105EBC100D1
:1027A0000BA9FFF7ADFEBBE104EB840106EB810052
:1027B000A0A103F0F2FC58B904EBC40101EB041131
:1027C00005EBC10003F022FDC0B28DF83200A7E195
:1027D00004EB840106EB810099A103F0DEFC58B9FB
:1027E00004EBC40101EB041105EBC10003F00EFD85
:1027F000C0B28DF8330093E104EB840106EB810055
:1028000091A103F0CAFC48B904EBC40101EB041127
:1028100005EBC1000DA9FFF773FE81E104EB840114
:1028200006EB81008CA103F0B8FC58B904EBC4019D
:1028300001EB041105EBC10003F0E8FCC0B28DF818
:102840003A006DE104EB840106EB810085A103F001
:10285000A4FC58B904EBC40101EB041105EBC10061
:1028600003F0D4FCC0B28DF83B0059E104EB8401C5
:1028700006EB81007DA103F090FC48B904EBC40194
:1028800001EB041105EBC1000FA9FFF739FE47E189
:1028900004EB840106EB810078A103F07EFC58B9BB
:1028A00004EBC40101EB041105EBC10003F0AEFC25
:1028B000C0B28DF8420033E104EB840106EB8100E5
:1028C00071A103F06AFC58B904EBC40101EB0411D7
:1028D00005EBC10003F09AFCC0B28DF86F011FE157
:1028E00004EB840106EB81006BA103F056FC98B960
:1028F00004EBC40000EB041005EBC00999F80000DC
:102900003038C0EB00120DF1430000EB420109F139
:102910000100FFF7F5FD03E104EB840106EB810004
:1029200061A103F03AFC98B904EBC40000EB041079
:1029300005EBC009484603F069FCC0EB00110DF13E
:10294000430000EB410B1E21584603F0EAFBE7E091
:1029500004EB840106EB810057A103F01EFC88B94B
:102960006A4614215CA8FFF7DEFD04EBC40000EB0F
:10297000041005EBC001684603F00FFC18B91FB145
:102980005CA9A3E0B1E0A8E0A4E0000061646D6987
:102990006E0000005B00000025737B226964223A10
:1029A00025642C226E616D65223A222573222C2229
:1029B000636F6465223A222573227D2C000000009B
:1029C0007B22646B5F6D5F706173737764223A2260
:1029D0002573222C0A2261223A222573222C0A22F4
:1029E0006465766963655F6C697374223A25730A5E
:1029F0007D00000025732025730A00007061737349
:102A000077640000646B5F7377697463680000002B
:102A1000646B5F6D5F70617373776400646B5F708C
:102A2000315F7300646B5F70315F706173737764E3
:102A300000000000646B5F70315F74696D650000B9
:102A4000646B5F70325F7300646B5F70325F7061E4
:102A50007373776400000000646B5F70325F7469A9
:102A60006D650000646B5F70335F7300646B5F7053
:102A7000335F70617373776400000000646B5F7094
:102A8000335F74696D65000076697369746F725F96
:102A9000737769746368000072656E616D655F6469
:102AA000657669636500000064656C6574655F64E4
:102AB000657669636500000061646D696E5F6F6CC7
:102AC000645F706173737764000000003846FFF73D
:102AD00017FD25E04FF0010A22E0F7A1619802F00E
:102AE000BAF9619800F0C0FE1AE004EB840106EB2D
:102AF0008100F4A103F051FB90B9BAF1010F09D1A3
:102B000004EBC40101EB041105EBC1005CA9FFF764
:102B1000F7FC05E004EBC40000EB041005EBC00774
:102B2000641C4445FFF6C9AD00BF002003F031F935
:102B30004FF4B072002109A803F07BF8E6A1619878
:102B400002F089F9619800F08FFE65B0BDE8F08F62
:102B50002DE9F043F7B005460F46904699464FF4ED
:102B6000B072002106A802F0C9FF002410E0C4EBF7
:102B700004110DF1370000EB410602AA0C2130468A
:102B8000FFF7D1FC02A803F001FB00B902E0641CCE
:102B90000A2CECDB00BF0A2C04D1D2A15EA803F002
:102BA000C7FE0DE0142101A803F0BBFA01A800F054
:102BB0001CFC01AB2246D2A15EA803F0B9FE00BF07
:102BC0005EA9284602F047F9284600F04DFE77B08E
:102BD000BDE8F0832DE9F043E1B081460D4616468D
:102BE00098464FF4B072002109A802F087FF0A202E
:102BF00001F0C3F9002443E004EBC40000EB04102F
:102C000006EBC00204EB840005EB8001AFF21C2050
:102C100003F07EFE04EB840105EB8100BFA103F00D
:102C2000BCFA48B904EBC40101EB041106EBC10086
:102C300003F0ECFA074622E004EB840105EB810087
:102C4000B8A103F0AAFA48B904EBC40000EB0410E1
:102C500006EBC00105A803F0AEFA10E004EB840116
:102C600005EB8100B1A103F098FA40B904EBC40070
:102C700000EB041006EBC001684603F09CFA641CEC
:102C80004445B9DBC7EB07120DF1430000EB4201ED
:102C900005A8FFF735FCC7EB07120DF1430000EB69
:102CA000420000F10C016846FFF72AFC002003F007
:102CB00070F84FF4B072002109A802F0BAFF9DA18C
:102CC000484602F0C8F8484600F0CEFD61B0BDE8C5
:102CD000F0832DE9F047D8B082460D461646984657
:102CE0004FF4B0720021684602F008FF0A2001F09C
:102CF00044F9002442E004EBC40000EB041006EBAE
:102D0000C00204EB840005EB8001AFF2183003F041
:102D1000FFFD04EB840105EB810089A103F03DFA7E
:102D200000282AD100271FE0C7EB07110DF11F0073
:102D300000EB410000F10C0904EBC40000EB0410AF
:102D400006EBC001484603F028FA60B97FA150465F
:102D500002F081F8504600F087FD012003F01BF9D6
:102D600058B0BDE8F0877F1C0A2FDDDB7AA1504602
:102D700002F071F8504600F077FD641C4445BADB60
:102D800000BFEDE72DE9F04104460D4616461F460B
:102D9000204602F09DF8204600F066FDBDE8F08177
:102DA0002DE9F043E5B080460D4616461F46002447
:102DB00049E004EBC40000EB041006EBC00204EB96
:102DC000840005EB8001AFF2D43003F0A1FD04EBE9
:102DD000840105EB810069A103F0DFF950BB4FF4DA
:102DE000B07200210DA802F089FE0A2001F0C5F89A
:102DF00004EBC40000EB041006EBC00160A803F074
:102E0000CCF9C0B960480068401C5F4908600846BA
:102E10005E490268684603F08BFD684603F0B6F928
:102E20001FFA80F94A466946404600F045FE404692
:102E300000F01AFD06E05649404601F099FD404673
:102E400000F012FD641CBC42B3DB65B0BDE8F0834A
:102E50002DE9F04104460D4616461F464DA1204679
:102E600001F0F9FFBDE8F0812DE9F04180460C4604
:102E700015461E4633462A46214649A0FFF75FFB0A
:102E80000746394648A003F088F918B1394649A0E9
:102E900003F083F9BDE8F08130B5D9B005464FF4B1
:102EA00080614748FDF759FC442D03D145A002F04D
:102EB00049F9D7E090E00000D4ADC3DCC2EBB4ED3B
:102EC000CEF3210061646D696E5F6E65775F70613E
:102ED0007373776400000000B1A3B4E6B3C9B9A668
:102EE000210000007B226D7367223A22D7EEB6E004
:102EF000B0F3B6A83130CCA8C9E8B1B8227D000043
:102F00007B22696E646578223A25642C226C6F639B
:102F10006B4D6163223A222573227D00696E6465E0
:102F2000780000006E616D6500000000636F6465ED
:102F300000000000B0F3B6A8B3C9B9A62100000094
:102F400070686F6E654D6163000000007B22636FE7
:102F50006465223A307D00007B22636F6465223A0B
:102F60002D312C226D7367223A22CEB4B0F3B6A86D
:102F7000B5C4C9E8B1B8227D0000000061646D6984
:102F80006E70617373776400700000207C770008B6
:102F9000C07700086170695F7265626F6F740000CE
:102FA0006D6574686F640000666C6173685F77724A
:102FB00069746500666C6173685F726561640000C6
:102FC0000014014076697369746F7220636F6D6DD0
:102FD000696E6721000000002A2D07D100202749D3
:102FE00008605021264803F09CF83BE0232D26D1B1
:102FF0004FF4B072002101A802F080FD0A2000F019
:10300000BCFF00240DE00DF10500005D1C4951F8E6
:103010002410884204D021461AA003F079FC06E06F
:10302000641C062CEFDB002002F0B5FF00BF00207F
:10303000124908605021124803F073F812E010485A
:103040000E49096840F821500C480068401C0B49A3
:103050000860084600680A2190FBF1F201FB1200AB
:10306000064908604CF2503000F087FF4FF4806151
:103070000948FDF774FB59B030BD00007400002012
:10308000D4010020C3DCC2EBB4EDCEF321696E6441
:1030900065783A25640A00000014014010B5DE4846
:1030A000DE490A68026089888180DD490968C0F8C4
:1030B0000610DC490968C0F80A10DB490968C0F845
:1030C0000E10DA490968C0F812100120D24988763A
:1030D0000021D148C1760A3000F002FACE480E3005
:1030E00000F0EEF9CC48801D00F00CFACC4800F05E
:1030F00024FACC4800F00FFACB4800F0E9F910BDF3
:1031000010B5C548C5490A6802608988818000F009
:10311000F0F910BD00B587B001210802FDF72CFDC4
:1031200001210820FDF728FD01218803FDF731FD6D
:103130004FF40050ADF8040003208DF8060018206D
:103140008DF8070001A9BA48FDF75AFA4FF48040FC
:10315000ADF8040001A9B648FDF752FA4FF400405B
:10316000ADF8040001A9B248FDF74AFA4FF48050C7
:10317000ADF8040010208DF8070001A9AC48FDF758
:103180003FFA0020ADF808004FF48270ADF80A0055
:103190000020ADF80C000220ADF80E000120ADF8C3
:1031A00010004002ADF812000820ADF81400002015
:1031B000ADF816000720ADF8180002A99D48FDF7EC
:1031C00065FD01219B48FDF706FE4FF40040ADF878
:1031D000040003208DF8060010208DF8070001A9D7
:1031E0009548FDF70DFA4FF400419348FDF7B5FA05
:1031F0004FF48070ADF8040003208DF806004820DD
:103200008DF8070001A98C48FDF7FAF907B000BD59
:1032100010B504462CB94FF480518548FDF79FFA4C
:1032200005E0012C03D121038148FDF796FA10BD7A
:1032300010B50020FFF7ECFF10BD10B50120FFF71F
:10324000E7FF10BD10B54FF400417B48FDF787FA4A
:10325000022000F092FE4FF400417748FDF77DFA1E
:103260004FF4C86000F062FE10BD10B5044600BF08
:1032700002217048FDF733FE0028F9D021466D4841
:10328000FDF7DAFD00BF01216A48FDF728FE00289E
:10329000F9D06848FDF7D2FDC0B210BD10B50446A4
:1032A0002046FFF7E2FF10BD70B504460D46FFF75C
:1032B000BFFFC4F30740FFF7F1FFC4F30720FFF798
:1032C000EDFF04F0F801091DC8B2FFF7E7FF28463B
:1032D000FFF7E4FFFFF7B1FF70BD70B504460025AE
:1032E000FFF7A6FFC4F30740FFF7D8FFC4F307209A
:1032F000FFF7D4FF04F0F800FFF7D0FF0020FFF73E
:10330000CDFF0546FFF799FF284670BD2DE9F04136
:1033100004460F461546002615B948A003F0F8FAF2
:10332000FFF786FFC4F30740FFF7B8FFC4F3072099
:10333000FFF7B4FF04F0F801091DC8B2FFF7AEFFB4
:10334000002604E0B85DFFF7A9FF701C86B2AE420C
:10335000F8DBFFF772FF2846BDE8F0812DE9F04168
:1033600004460F461546002615B934A003F0D0FADE
:10337000FFF75EFFC4F30740FFF790FFC4F3072099
:10338000FFF78CFF04F0F800FFF788FF002605E048
:103390000020FFF783FFB855701C86B2AE42F7DB02
:1033A000FFF74BFF2846BDE8F0812A480068401C23
:1033B0002849086008460068B0F57A7F0BD30020E2
:1033C000086025480068401C2349086023480078AD
:1033D000401C22490870704770B521A003F098FA8C
:1033E000002044682546A84770BD1FB504460B4819
:1033F00040790A490979094AD278084B9B78CDE986
:103400000032CDE9021005484378027819A1204620
:1034100003F08EFA1FBD0000240200207800002077
:103420007E00002082000020860000208A0000200C
:10343000000C01400038004000200140556E6578C6
:1034400070656374656432206C656E6774682030E3
:103450000D0A0000980000209C000020A000002021
:1034600020CFB5CDB3D6D8C6F4D6D0A1ADA1AD0D81
:103470000A000000253032783A253032783A25307B
:1034800032783A253032783A253032783A2530325F
:103490007800000010B5044621460020FFF704FF25
:1034A00010BD10B58020FFF7F5FF10BD0146DC48C8
:1034B00030F8110070470146DA4830F811007047C3
:1034C00010B50446042221469001FFF71FFF10BDEE
:1034D00010B50446042221469001FFF73FFF10BDBE
:1034E00010B50446042221464FF4A060FFF70EFFFA
:1034F00010BD10B50446062221464FF41060FFF7B8
:1035000005FF10BD10B50446042221464FF470603B
:10351000FFF7FCFE10BD10B50446042221464FF40F
:10352000A060FFF71BFF10BD10B504460622214620
:103530004FF41060FFF712FF10BD10B504460422CF
:1035400021464FF47060FFF709FF10BD10B54FF42E
:10355000A850FFF7C2FE10BD10B50446210A4FF473
:10356000C850FFF7A1FEE1B24FF4D050FFF79CFE28
:1035700010BD10B5044621464FF4D850FFF794FE15
:1035800010BD70B50446FFF7E1FF60EA0400C5B264
:1035900029464FF4A850FFF787FE70BD70B504466A
:1035A0000D46290A41F2082202EB4410FFF77CFE87
:1035B000E9B241F2083202EB4410FFF775FE70BD2C
:1035C00070B504460D4641F2086101EB44102946EE
:1035D000FFF76AFE70BD10B504464FF4027101EBAF
:1035E0004410FFF77AFE10BD70B504460D464FF447
:1035F000027101EB44102946FFF756FE70BD10B56D
:1036000004464FF4427101EB4410FFF766FE10BD13
:1036100070B504460025002600BF42F2080101EB08
:103620004410FFF75AFE064642F2081101EB44101F
:10363000FFF753FE00EB062086B27EB142F208018E
:1036400001EB4410FFF749FE054642F2081101EB79
:103650004410FFF742FE00EB052085B2B542DCD1F5
:10366000284670BD70B504460025002600BF42F212
:10367000086101EB4410FFF730FE064642F2087184
:1036800001EB4410FFF729FE00EB062086B27EB165
:1036900042F2086101EB4410FFF71FFE054642F2BB
:1036A000087101EB4410FFF718FE00EB052085B20E
:1036B000B542DCD1284670BD2DE9F04104460F46E5
:1036C00016460025A8462EB9214657A003F020F93A
:1036D000BDE8F08142F2084101EB4410FFF7FDFD27
:1036E000054642F2085101EB4410FFF7F6FD00EBEE
:1036F000052085B2280200EB441000F11008324684
:1037000039464046FFF702FEA81985B2290A42F25F
:10371000084202EB4410FFF7C7FDE9B242F208523B
:1037200002EB4410FFF7C0FD00BFD1E72DE9F041E7
:1037300004460F4616460025A8462EB9214642A04B
:1037400003F0E6F8BDE8F08142F6080101EB441011
:10375000FFF7C3FD054642F6081101EB4410FFF7E1
:10376000BCFD00EB052085B2280200EB441000F1FF
:103770001808324639464046FFF7F0FDA81985B2D1
:10378000290A42F6080202EB4410FFF78DFDE9B268
:1037900042F6081202EB4410FFF786FD00BFD1E7A6
:1037A0002DE9F04105460E460027B846002433E0D7
:1037B000295D41F6087202EB4410FFF775FD315D9B
:1037C00041F6086202EB4410FFF76EFD0020154938
:1037D00021F81400124921F81400B7F5804F07DCD6
:1037E000285D4FF6FF7101EA80200E4921F8140090
:1037F000B8F5804F07DC305D4FF6FF7101EA80209D
:10380000074921F81400074830F814000744044819
:1038100030F814008044641C082CC9DBBDE8F0813A
:10382000620200205202002043483A2025642055BD
:103830006E657870656374656431206C656E67745D
:103840006820300D0A00000043483A2025642055C6
:103850006E657870656374656432206C656E67743C
:103860006820300D0A00000010B504464FF4847142
:1038700001EB44101021FFF717FD00BF4FF48471D6
:1038800001EB4410FFF729FD0028F7D14FF4027136
:1038900001EB4410FF21FFF707FD10BD2DE9F041BA
:1038A00004460D461646984605F00F0001280FD035
:1038B00005F00F0002280BD005F00F00032807D0F9
:1038C00005F00F00042803D005F00F00052841D1B2
:1038D0002046FFF7C9FF45EA0801082202EB441021
:1038E000FFF7E2FC76B1310A4FF4816202EB44103B
:1038F000FFF7DAFCF1B24FF4A16202EB4410FFF7DC
:10390000D3FC15E0FE480088401CFD4908800A46AB
:103910001288110A4FF4816202EB4410FFF7C4FCD5
:10392000F74A11784FF4A16202EB4410FFF7BCFC98
:103930004FF4847101EB44100121FFF7B5FC00BF87
:103940004FF4847101EB4410FFF7C7FC0028F7D156
:10395000012700E000273846BDE8F08170B5044635
:103960004FF4427101EB4410FFF7B7FC132811D15B
:103970004FF4847101EB44100221FFF795FC00BF66
:103980004FF4847101EB4410FFF7A7FC0028F7D136
:10399000012500E00025284670BD2DE9F0410546CF
:1039A0000C4616462078FF2808D16078FF2805D1FC
:1039B000A078FF2802D1E078FF2808D0207828B925
:1039C000607818B9A07808B9E07800B10EB900277E
:1039D0005CE00127217840F6084202EB4510FFF732
:1039E00063FC617840F6085202EB4510FFF75CFC7F
:1039F000A17840F6086202EB4510FFF755FCE1782C
:103A000040F6087202EB4510FFF74EFC310A41F216
:103A1000080202EB4510FFF747FCF1B241F2081231
:103A200002EB4510FFF740FC4FF4847101EB4510A9
:103A30000421FFF739FC00BF4FF4847101EB4510FE
:103A4000FFF74BFC0028F7D117E04FF4427101EB70
:103A50004510FFF742FC172800D116E02846FFF773
:103A6000BAFD00F0080040B14FF4027101EB4510BF
:103A70000821FFF719FC002707E04FF4427101EB22
:103A80004510FFF72AFC1528DFD100BF3846BDE8F6
:103A9000F08110B504464FF4847101EB4410082105
:103AA000FFF702FC00BF4FF4847101EB4410FFF7F5
:103AB00014FC0028F7D110BD2DE9F04704468846D4
:103AC000164600250027A9462046FFF7F4FCB04221
:103AD00004DA2046FFF7EFFC074600E0374600BF58
:103AE0002046FFF795FD81464FF4427101EB4410EB
:103AF000FFF7F3FB0546172D03D01C2D01D000273F
:103B000001E0B945ECDB00BF3A4641462046FFF7ED
:103B1000D3FD4FF4847101EB44102021FFF7C4FB67
:103B200000BF4FF4847101EB4410FFF7D6FB00286F
:103B3000F7D113E04FF4427101EB4410FFF7CDFBD6
:103B40000546172D0AD01C2D08D06EA002F0E0FE0D
:103B50002046FFF789FE0020BDE8F0874FF4027190
:103B600001EB4410FFF7B9FB00F010001028E1D181
:103B70004FF4027101EB44101021FFF795FB4FF455
:103B8000027101EB44101021FFF78EFB3846E3E78A
:103B90002DE9F04104460E4615460027002D15DD9F
:103BA0002A4631462046FFF7C1FD4FF4847101EBF0
:103BB00044104021FFF778FB00BF4FF4847101EB04
:103BC0004410FFF78AFB0028F7D12F463846BDE89E
:103BD000F0812DE9F0470446894616461D46089FA8
:103BE0004FF000082046FFF766FCB04204DA20469A
:103BF000FFF761FC804600E0B046287828B9687875
:103C000018B9A87808B9E87800B117B94FF00008DA
:103C100063E0297840F6084202EB4410FFF744FBCA
:103C2000697840F6085202EB4410FFF73DFBA97893
:103C300040F6086202EB4410FFF736FBE97840F6E5
:103C4000087202EB4410FFF72FFB390A41F2080219
:103C500002EB4410FFF728FBF9B241F2081202EB25
:103C60004410FFF721FB424649462046FFF724FD5A
:103C70004FF4847101EB44102021FFF715FB00BFC6
:103C80004FF4847101EB4410FFF727FB0028F7D1B4
:103C900012E04FF4027101EB4410FFF71EFB00F03D
:103CA000080048B14FF4027101EB44101821FFF7EE
:103CB000FBFA0020BDE8F0874FF4027101EB4410DD
:103CC000FFF70BFB00F010001028E2D14FF4027157
:103CD00001EB44101021FFF7E7FA4046EAE72DE92F
:103CE000FC5F05468A4691461E46DDF83080002777
:103CF0000024A346B9F1000F71DD42F608010BE084
:103D00008E00002053454E445F4F4B2050726F622F
:103D10006C656D21210D0A0001EB4510FFF7DDFAFE
:103D2000044642F6081101EB4510FFF7D6FA00EB06
:103D3000042084B2200200EB451000F1180B08218A
:103D400001EB4510FFF7C9FA00F00700022804D084
:103D5000032845D0042878D178E0082269465846DF
:103D6000FFF7FCFA04F1080084B29DF800003070FF
:103D70009DF8010070709DF80200B0709DF803007E
:103D8000F0709DF80400A8F800009DF8050098F870
:103D9000001000EB0120A8F800009DF806709DF8C7
:103DA000070000EB072087B2200200EB451000F16E
:103DB000180B3A4651465846FFF7D0FAE01984B23C
:103DC000210A42F6080202EB4510FFF76DFAE1B254
:103DD00042F6081202EB4510FFF766FA6AE07AE055
:103DE000062269465846FFF7B9FAA01D84B29DF82D
:103DF000000030709DF8010070709DF80200B070F6
:103E00009DF80300F0709DF804709DF8050000EB2C
:103E1000072087B2200200EB451000F1180B3A464C
:103E200051465846FFF79AFAE01984B2210A42F641
:103E3000080202EB4510FFF737FAE1B242F608122A
:103E400002EB4510FFF730FA34E032E00222694617
:103E50005846FFF783FAA01C84B29DF800709DF8C5
:103E6000010000EB0720801E87B240F2EA50874233
:103E700004DD1AA002F04CFD00BFFEE7200200EBBB
:103E8000451000F1180B3A4651465846FFF766FABE
:103E9000E01984B2210A42F6080202EB4510FFF74E
:103EA00003FAE1B242F6081202EB4510FFF7FCF903
:103EB00000E000BF00BF4FF4847101EB45104021CA
:103EC000FFF7F2F900BF4FF4847101EB4510FFF7E3
:103ED00004FA0028F7D13846BDE8FC9F646174619C
:103EE0005F6C656E206F76657220313531340D0A56
:103EF000000000004FF0E021096921F004014FF0BB
:103F0000E0221161C21700EB5272C2F3C702FE4BEE
:103F10001A701946097801EB4102C2EBC1114FF644
:103F2000FF7202EAC101F94A118070470146F74A5F
:103F300012884A434FF0E0235A6100229A6101221D
:103F40001A6100BF4FF0E022106900F001021AB1BF
:103F500000F48032002AF5D000224FF0E0231A61ED
:103F60009A61704710B5044604E04FF47A70FFF789
:103F7000DDFF641E002CF8D110BD0146E24A127824
:103F80004A434FF0E0235A6100229A6101221A61EC
:103F900000BF4FF0E022106900F001021AB100F4F6
:103FA0008032002AF5D000224FF0E0231A619A6196
:103FB00070470146302905DB392903DCA1F13000C7
:103FC000C0B27047612905DB662903DCA1F1570007
:103FD000C0B2F6E7412905DB462903DCA1F1370031
:103FE000C0B2EEE70846ECE730B502460B460024C7
:103FF00005E012F8010BFFF7DCFF04FB0304107867
:104000000028F6D1A0B230BD30B502460B460024E0
:1040100005E012F8010BFFF7CCFF04FB0304107856
:104020000028F6D1204630BD2DE9F04104460D466A
:104030001646701EC7B220223146284602F06AF8A2
:1040400000BF0A2094FBF0F100FB11403030C2B2F7
:104050003846791ECFB22A540A2094FBF0F080B281
:10406000041EEEDCBDE8F0812DE9F04104460F4668
:10407000904626460CB1207810B90020BDE8F081AA
:104080000BE03078FFF795FF0546002D03DBBD42BE
:1040900001DA761C01E00020F0E730780028F0D14A
:1040A000B9B22046FFF7A0FFC8F800000120E5E7FD
:1040B00010B50B46002104E0445C9C4200D1425400
:1040C000491C445C002CF7D110BD014600200A06B3
:1040D000100C40EA11207047014600200806C1F389
:1040E000072240EA0240C1F3074240EA022040EAC8
:1040F000116070472DE9F04781460E4617461D4670
:104100003146484602F024F80446304602F03EF8B4
:1041100004443946204602F01BF88246AAEB04000C
:104120001FFA80F842462146284602F023F8002074
:1041300005F80800BDE8F0872DE9F04188B0064693
:104140000F463146684602F036F86C4600251BE003
:104150006FA1204602F038F804462078302809D1B3
:104160006078782806D11021A01CFFF73DFF00F0F1
:10417000FF0805E00A212046FFF736FF00F0FF08A0
:1041800007F8058000246D1C042DE1DB08B0BDE8B4
:10419000F0811CB5044620215E4801F0C2FFE0B268
:1041A000C4F30721220EC4F30743CDE900105AA13E
:1041B000584802F0BDFB57481CBD1CB504461021F1
:1041C000584801F0AEFFE0B2C4F30721220EC4F359
:1041D0000743CDE9001054A1524802F089FB514831
:1041E0001CBDF0B58FB006460F4601AC314601A8A4
:1041F00001F0E1FF00252AE045A1204601F0E4FF9F
:10420000044614B900200FB0F0BD207830280AD140
:104210006078782807D10EAA1021A01CFFF724FF90
:1042200048B90020EFE70EAA0A212046FFF71CFF3D
:1042300008B90020E7E70E9878550E98002802DBB1
:104240000E98FF2801DD0020DDE700246D1C042D01
:10425000D2DB0120D7E700B503461846FFF735FF4C
:1042600000BD00B503461846FFF736FF00BD10B588
:1042700004462046FFF7EFFF10BD10B50446204668
:10428000FFF7EFFF10BDF0B502460D46C5F34F0630
:10429000002400210EE012F811304FF6FF7707EAF4
:1042A0000323012707EB4107D75D1F44BBB21C4422
:1042B0004F1CB9B2B142EEDB05F001071FB112F895
:1042C000113004EB0324A0B200EB1447FF43B8B253
:1042D000F0BDF1B500246D4600BF30E004F5A060EC
:1042E000FEF7FBFF295D00EA010704F57060FEF7A9
:1042F000F4FF064604F5A060FEF7EFFF0640B74264
:104300001CD00120F8BD0000B2000020B400002045
:104310002E0000007202002025642E25642E2564E4
:104320002E25640092020020253033642E25303380
:10433000642E253033642E2530336400641C042C35
:10434000CCDB0020F8BD00002DE9F041044600263A
:10435000002512E0605DA05525280CD1A91C605CE9
:10436000FFF727FE0746691C605CFFF722FE07EB9C
:104370000010A055AD1C761C6D1C605D0028E9D1B5
:10438000A055BDE8F081FEB506460C46174640F242
:10439000B451304601F0C5FE012C01D1AA4D16E002
:1043A000022C01D1A9A512E0032C01D1B64D0EE0DB
:1043B000042C01D1B5A50AE0052C01D1C24D06E0BF
:1043C000062C01D1C1A502E0072C00D1CE4D3A4602
:1043D000CEA1684602F0ACFA2946304601F0EBFE69
:1043E0006946304601F0A8FEC9A1304601F0A4FE9E
:1043F000FEBD70B504460D46C7A1284601F0A8FED3
:1044000010B10920207074E0C4A1284601F0A0FE7C
:1044100020B9C4A1284601F09BFE10B101202070F4
:1044200067E0C2A1284601F093FE10B1022020707F
:104430005FE0C0A1284601F08BFE20B9BFA128464D
:1044400001F086FE10B10320207052E0BDA1284685
:1044500001F07EFE20B9BDA1284601F079FE10B121
:104460000420207045E0BBA1284601F071FE10B188
:10447000052020703DE0B9A1284601F069FE20B971
:10448000B8A1284601F064FE10B10620207030E08B
:10449000B6A1284601F05CFE10B10720207028E08C
:1044A000B4A1284601F054FE20B9B4A1284601F079
:1044B0004FFE10B1082020701BE0B2A1284601F089
:1044C00047FE20B9B0A1284601F042FE10B10320FA
:1044D00020700EE0ADA1284601F03AFE20B9ADA152
:1044E000284601F035FE10B10120207001E00020C7
:1044F000207070BD70B504460E46A8A1304601F08C
:1045000063FE054615B90020207070BDA4A12846A1
:1045100001F043FE20B1A3A1284601F03EFE38B9C8
:10452000012020709DA1002001F04EFE054625E0EF
:104530009DA1284601F031FE20B19DA1284601F041
:104540002CFE38B90220207094A1002001F03CFE1E
:10455000054613E098A1284601F01FFE20B198A15E
:10456000284601F01AFE38B96AA1002001F02CFE9D
:1045700005460320207001E00020207015B90020BE
:104580002070C2E72946A01C01F015FE00BFBCE761
:104590002DE9FE4F05460F460024DFF82C92A24677
:1045A000002000900190029005B117B90020BDE8ED
:1045B000FE8F6B4685A286A12846FFF79BFD0A2148
:1045C0006846FFF711FD824651A1284601F0C0FD63
:1045D00005462D1D002005F80A003946284601F041
:1045E000B7FD04465CB3384601F0D0FD401C0444DE
:1045F0007CA1204601F0ACFD06461EB9204601F024
:10460000C5FD06194FF00008301B1FFA80F8B8F1FD
:10461000000F10D0002009F8080042462146484605
:1046200001F0A8FD4846FFF78FFE20222B214846C7
:10463000FFF73EFD05E0002089F8000001E00020C2
:10464000B5E74846B3E70000B47900084854545031
:104650002F312E3120323030204F4B0D0A436F6EF8
:1046600074656E742D547970653A20696D61676563
:104670002F6769660D0A436F6E74656E742D4C6505
:104680006E6774683A200000007A0008485454505D
:104690002F312E3120323030204F4B0D0A436F6EB8
:1046A00074656E742D547970653A20696D61676523
:1046B0002F6A7065670D0A436F6E74656E742D4CBA
:1046C000656E6774683A2000907A00084854545028
:1046D0002F312E3120323030204F4B0D0A436F6E78
:1046E00074656E742D547970653A20766964656FCF
:1046F0002F6D7065670D0A436F6E74656E742D4C77
:10470000656E6774683A20004C7A0008256C640076
:104710000D0A0D0A000000002E706C002E68746DEA
:104720006C0000002E68746D000000002E67696642
:10473000000000002E746578740000002E747874F8
:10474000000000002E6A7065670000002E6A706726
:10475000000000002E737766000000002E6D70656B
:10476000670000002E6D7067000000002E70646608
:10477000000000002E636769000000002E434749D7
:10478000000000002E6A73002E4A53002E786D6CD4
:10479000000000002E584D4C0000000020000000DA
:1047A00047455400676574004845414400000000D7
:1047B0006865616400000000504F53540000000021
:1047C000706F7374000000000A0E00200D0A0000D4
:1047D000436F6E74656E742D4C656E6774683A2015
:1047E00000000000260000000FB410B592B004468F
:1047F00015A8407B15A9097B15AAD27A9DF85E30D1
:10480000CDE90E32CDE9101015A8407C15A9097C20
:1048100015AAD27B9DF86230CDE90A32CDE90C10A1
:1048200015A8417A027AC0799DF85A30CDE9063050
:10483000CDE908219DF859109DF858009DF85720A2
:104840009DF85630CDE90232CDE904019DF85500BE
:104850009DF85410CDE9001015A8C37E9DF86E2078
:10486000FE49204602F064F812B010BC5DF814FB5B
:104870002DE9FF5F0E4692469B460E9D0020286064
:10488000F7A1009801F064FC07467F1CF5A13846AB
:1048900001F05EFC8046B8F1000F0ED1384601F001
:1048A00075FC044622463946304601F063FC002080
:1048B0003055012004B0BDE8F09FA8EB0704224664
:1048C0003946304601F056FC601E305C2F2803D17B
:1048D0000021601E315401E00020305508F101082C
:1048E00038E000BFE0A1404601F032FC8146B9F15A
:1048F000000F00D13AE0A9EB0804296801EB81011F
:104900000AEB81002246414601F034FC0020296870
:1049100001EB81010AEB8101085509F10109A7EBBF
:104920000904296801EBC10202EB01110BEBC10084
:104930002246494601F01EFC0020296801EBC10215
:1049400002EB01110BEBC10108552868401C2860DF
:1049500007F10108C5A1404601F0FAFB0700C0D1EC
:10496000009801F013FC00994718BBE70120A1E76C
:104970002DE9F04780460D460026BD4F284601F040
:1049800005FC0446224601213846FFF7FCFC384668
:1049900001F0FCFB1FFA80F94A4639464046FFF712
:1049A0008BF800BF1DE0B4F5806F12D94046FEF7CA
:1049B00026FE172801D0BDE8F087A9194FF48062C0
:1049C0004046FFF779F806F5806086B2A4F580646A
:1049D00007E0A2B2A9194046FFF76EF8301986B277
:1049E000241B002CDFD100BFE5E72DE9F047ADF532
:1049F0008C5D06460F464FF4C8710DF57D6001F0E1
:104A000090FB4FF47A610CA801F08BFB202103A8E6
:104A100001F087FB4FF00009CA4640F2B4519548B7
:104A200001F07FFB924D934C39462046FFF762FD23
:104A3000207830B1012815D0022812D0032879D16E
:104A4000CDE076228C49284601F052FB284601F041
:104A50009DFB1FFA80F8424629463046FFF72CF8A6
:104A6000BFE000BF0BA80CAB0DF57D620DF58B51BF
:104A70000090A01CFFF7FCFE0DF58B52A11C7FA03F
:104A80000B9B01F045FF86A10DF58B5001F085FBD6
:104A900028B186A10DF58B5001F07FFB98B90B98DA
:104AA00001280BD10CA801F0B1FB834909688842A9
:104AB00004D182493046FFF75BFF8FE080493046E2
:104AC000FFF756FF8AE07FA10DF58B5001F065FBE3
:104AD00028B17DA10DF58B5001F05FFB20B978491D
:104AE0003046FFF745FF79E07AA10DF58B5001F0D4
:104AF00054FB38B90CAA0DF57D6130460B9BFEF7CF
:104B0000E8F86BE076A10DF58B5001F046FB18B983
:104B10003046FDF74FFD61E075A10DF58B5001F0BA
:104B20003CFB40B90CAA0DF57D6130460B9BFDF7AF
:104B3000AEFD53E054E072A10DF58B5001F02DFB5A
:104B400038B90CAA0DF57D6130460B9BFEF700F8D5
:104B500044E06FA10DF58B5001F01FFB38B90CAA92
:104B60000DF57D6130460B9BFEF734F836E06CA105
:104B70000DF58B5001F011FB38B90CAA0DF57D61D4
:104B800030460B9BFEF7FEF828E068A10DF58B5030
:104B900001F003FB38B90CAA0DF57D6130460B9B83
:104BA000FEF7FEF81AE064A10DF58B5001F0F5FA5E
:104BB00038B90CAA0DF57D6130460B9BFEF748F91C
:104BC0000CE060A10DF58B5001F0E7FA30B90CAAAA
:104BD0000DF57D6130460B9BFEF746F901E000E0E4
:104BE00000BF00BF0DF58C5DBDE8F08770B50426F1
:104BF00040F2B4511E4801F094FA1D4D3046FEF7C4
:104C0000FEFC14280ED004DC002823D0132822D167
:104C100004E0172807D01C281DD1A2E03046FEF77B
:104C20009DFEBBE0BAE03046FEF7D5FC00F0010087
:104C300018B101213046FEF7D7FC3046FEF712FDD1
:104C4000041E09DD224629463046FEF7A1FF044630
:104C500000207DE09AE0A0E082E000007C7B00087C
:104C60002F0000003F0000003D0000002600000073
:104C700056080020A202002080760008706172733E
:104C80006555726C2D2D3E5552493A257320207082
:104C90006174683A257320206C656E3A25640A00B9
:104CA000696E6465782E68746D000000696E6465D5
:104CB000782E68746D6C000070000020507C000835
:104CC000C0770008000000006C6F67696E2E687482
:104CD0006D6C0000756E6C6F636B2E63676900000E
:104CE0006765744D6F64656C2E6367690000000032
:104CF0007365744D6F64656C2E6367690000000016
:104D00006164644465766963652E636769000000C9
:104D100062696E644465766963652E636769000045
:104D200076697369746F722E696D67006C6F67695D
:104D30006E2E646F000000007265626F6F742E63E8
:104D40006769000064656275672E6367690000002B
:104D5000285529463046FFF748FE3046FEF799FEB3
:104D60001CE03046FEF77EFC041E0BDD2246294681
:104D70003046FEF70DFF04460020285529463046F0
:104D8000FFF733FE3046FEF784FE07E00023502293
:104D900001213046FEF782FD00E000BF00BF70BD7C
:104DA00070B5062640F2B4519C4801F0BAF99B4D0B
:104DB0003046FEF724FC14280ED004DC002840D036
:104DC000132845D104E0172807D01C2840D123E040
:104DD0003046FEF7C3FD3CE03BE03046FEF7FBFB10
:104DE00000F0010018B101213046FEF7FDFB30460E
:104DF000FEF738FC041E0EDD224629463046FEF73B
:104E0000C7FE04460020285529463046FFF7EDFD31
:104E10003046FEF73EFE1CE03046FEF723FC041E43
:104E20000BDD224629463046FEF7B2FE044600203E
:104E3000285529463046FFF7D8FD3046FEF729FEB3
:104E400007E00023512201213046FEF727FD00E054
:104E500000BF00BF70BD2DE9F04780460D4600261B
:104E60006E4F284601F092F9044622466C493846B6
:104E700001F05EFD384601F089F91FFA80F94A46D3
:104E800039464046FEF718FE00BF1DE0B4F5806FBE
:104E900012D94046FEF7B3FB172801D0BDE8F087D2
:104EA000A9194FF480624046FEF706FE06F58060C1
:104EB00086B2A4F5806407E0A2B2A9194046FEF7C5
:104EC000FBFD301986B2241B002CDFD100BFE5E7C3
:104ED0002DE9F041ADF5327D064648225149A0A8A2
:104EE00001F006F900BF504800780228FBD100BF4E
:104EF00040024E494861C00048610861C010086125
:104F0000C0004861086100BF00251CE0002416E0D5
:104F100000BF4FF0000800BF4FF400504349486104
:104F20004348006800F0FF084814086148614048A1
:104F3000006800F0FF084814086100BF641CB4F565
:104F4000A07FE5DB6D1CF02DE0DB0020364908700A
:104F5000A0A801F01BF987B23A46A0A93046FEF797
:104F6000ABFD00BF304800780228FBD100BF4002F3
:104F70002E494861C00048610861C0100861C00046
:104F80004861086100BF00252DE0002421E000BF3A
:104F900000200DF8140000216000401C0DF80010E6
:104FA0004FF400502149486121480068C1B26000B7
:104FB000401C0DF800104FF400501C490861486176
:104FC0001B480068C0B20DF814004814086100BF07
:104FD000641CB4F5A07FDADB4FF4207269463046DA
:104FE000FEF76AFD6D1CF02DCFDB00200E49087026
:104FF0000DF5327DBDE8F081FEB505460C4616463E
:10500000E078A1786278CDE90021029023782A46E1
:105010000849304601F08CFCFEBD00005608002017
:10502000287B0008E07A0008700100200020014081
:10503000081401408C980008344908600121344A62
:10504000117070472DE9FC41002540F6B83628461E
:10505000FEF7D5FA0446002C43D0132C04D0172CAD
:1050600019D01C2C4CD138E02948007890B129483F
:1050700001882948C078CDE9000127488378427823
:10508000017826A001F044FC2248028822492846E3
:10509000FEF783FC35E02846FEF79DFA00F001009C
:1050A00018B101212846FEF79FFA2548007880B103
:1050B0001648006801F06AF887B23A46134801685A
:1050C0002846FEF7F9FC00201D4908702846FEF727
:1050D000CBFB0A20FEF72AFF13E02846FEF7C4FBAD
:1050E0000FE000200A4908700849086001201449AF
:1050F00008700023324601212846FEF7CFFB00E06E
:1051000000BF00BF2046BDE8FC810000C0000020B9
:10511000C4000020BC000020B8000020B7A2CBCD06
:1051200068747470C7EBC7F32069703A25642E2544
:10513000642E25642E2564202025640A00000000CA
:10514000C50000201B49086001211B4A11707047EF
:1051500038B500250220FEF752FA10B1222826D1D8
:1051600007E0002340F2574202210846FEF796FB73
:105170001DE011480078C8B10A20FEF7D7FE0D489F
:1051800001680EA001F0C4FB0A48006800F0FEFFB1
:1051900084B20E4800880E4B2246009005480168F4
:1051A0000220FEF716FD00200349087000BF00BF73
:1051B00038BD0000D0000020D4000020B7A2CBCD25
:1051C000B9E3B2A5A3BA25730D0A0000CC000020F4
:1051D000C800002008B501212020FBF7CDFC4FF4CA
:1051E0008070ADF8000010208DF8030003208DF8CA
:1051F000020069467F48FBF703FA01210802FBF72A
:10520000BBFC4FF48040ADF8000069467A48FBF7DC
:10521000F7F901210420FBF7AFFC4FF48060ADF8F3
:10522000000069467448FBF7EBF901210802FBF71F
:10523000A3FC4FF40060ADF8000069466E48FBF730
:10524000DFF901211020FBF797FC4FF40050ADF877
:10525000000069466848FBF7D3F901212020FBF7DD
:105260008BFCFF20ADF8000004208DF80300032024
:105270008DF8020069465F48FBF7C2F94FF4006001
:105280005D494861C0105B491031086008BD10B528
:1052900000F0D6F8FFF79EFF10BD08B50121080207
:1052A000FBF76AFC4FF48050ADF8000004208DF845
:1052B000030003208DF8020069464F48FBF7A0F970
:1052C00008BD08B54FF4C060FBF73EF828208DF804
:1052D000000000208DF8010003208DF8020001205D
:1052E0008DF803006846FBF734F808BD1CB50C21A7
:1052F0000620FBF79BFA4FF48050009000208DF8B9
:1053000004000C208DF8050001208DF80600684689
:10531000FBF796F84FF48050FBF7E1F81CBD10B591
:10532000FFF7BBFFFFF7E2FFFFF7CBFF10BD38B57C
:105330000024002000908021122000F087F920B97D
:105340002EA001F0E5FA002038BD0B2201216846AD
:1053500000F09CF920B92FA001F0DAFA0020F3E761
:105360009DF8000021281AD1002413E02D4A02EBF9
:10537000440251782B4A12F8140000F067F938B94A
:10538000284810F8141028A001F0C2FA0020DBE72A
:10539000601C84B2294800788442E7DB01E00020E9
:1053A000D2E70120D0E710B500201FE0002118E06F
:1053B00000BF00224FF400530F4C63610D4B0833C4
:1053C0001B6803F47F42631423616361094B083354
:1053D0001B68C3F307231A436314236100BF4B1CEC
:1053E00099B2B1F5A07FE3DB431C98B2F028DDDB76
:1053F00010BD00000014014000200140736363628F
:105400002077726974652064617461206572726FBF
:10541000720A000072656164206964206661696CCB
:10542000640A0000D50000207772697465207265F7
:1054300067206661696C642025640A006F010020A2
:1054400008B501211020FBF797FBC020ADF8000044
:1054500003208DF8020014208DF803006946AA4845
:10546000FBF7CEF808BD4FF4C87001E0411E88B2CA
:105470000028FBD1704710B58021A348FBF76DF9D8
:105480004021A148FBF769F9FFF7EDFF80219E4815
:10549000FBF749F908B9002010BD80219A48FBF7B5
:1054A0005EF9FFF7E0FF80219748FBF73CF908B170
:1054B0000020F1E780219448FBF751F9FFF7D3FF73
:1054C0000120E9E710B540218F48FBF748F9FFF7C5
:1054D000CAFF80218C48FBF742F9FFF7C4FF402147
:1054E0008948FBF73AF9FFF7BEFF80218648FBF7B2
:1054F00034F9FFF7B8FF10BD10B540218248FBF723
:105500002EF9FFF7B0FF80217F48FBF728F9FFF75E
:10551000AAFF40217C48FBF720F9FFF7A4FF4021B8
:105520007948FBF71CF9FFF79EFF10BD10B540212D
:105530007548FBF714F9FFF796FF80217248FBF7D7
:105540000CF9FFF790FF40216F48FBF706F9FFF7D2
:105550008AFF40216C48FBF702F9FFF784FF10BD7A
:1055600010B540216848FBF7FAF8FFF77CFF80216F
:105570006548FBF7F2F8FFF776FF40216248FBF73A
:10558000ECF8FFF770FF80215F48FBF7CCF828B1FB
:1055900040215D48FBF7E3F8002010BD40215A4848
:1055A000FBF7DDF80120F8E770B5044608251BE09D
:1055B00040215548FBF7D3F8FFF755FF04F0800072
:1055C00020B180215048FBF7C8F803E080214E4805
:1055D000FBF7C5F86006040EFFF745FF40214A4877
:1055E000FBF7BBF8FFF73FFF2800A5F10101CDB2A3
:1055F000DED140214448FBF7B2F870BD70B50825F4
:10560000002480214048FBF7A8F814E06006040E4F
:1056100040213D48FBF7A3F8FFF725FF40213A481A
:10562000FBF79BF8FFF71FFF80213748FBF77BF85C
:1056300008B144F001042800A5F10101CDB2E5D183
:1056400040213148FBF78BF8204670BD70B5044609
:105650000D46FFF710FF08B9002070BD4220FFF78C
:10566000A3FFFFF77DFF18B9FFF72CFF0020F4E739
:10567000E0B2FFF799FFFFF773FF2846FFF794FFAB
:10568000FFF76EFFFFF71EFF0120E6E770B5054646
:105690000C461646FFF7EFFE08B9002070BD422009
:1056A000FFF782FFFFF75CFF18B9FFF70BFF002041
:1056B000F4E73046FFF778FFFFF752FFFFF702FFEE
:1056C000FFF7D9FE08B90020E8E74320FFF76CFF99
:1056D000FFF746FF18B9FFF7F5FE0020DEE70CE004
:1056E000FFF78CFF2870012C02D1FFF71FFF01E0AC
:1056F000FFF702FF6D1C601E84B2002CF0D1FFF793
:10570000E1FE0120CAE7000000100140F8B50524C1
:10571000052501218020FBF72FFA0F20ADF80000AE
:1057200010208DF8030003208DF8020069466648BA
:10573000FAF766FFF020ADF8000048208DF803006E
:1057400069466148FAF75CFF4FF6F0715E48FBF777
:105750000DF85D48FAF7F0FF00F0F000F02801D1F5
:10576000A01FF8BD5848FAF7E7FF00F0F000F02856
:1057700020DA0220FEF7DAFB5348FAF7DDFF00F0EB
:10578000F000F02816DA5048FAF7D6FF00F0F007DC
:10579000702F0BD0B02F07D0D02F03D0E02F07D120
:1057A000002506E0012504E0022502E0032500E0D3
:1057B00000BF00BF01218020FBF7DEF9F020ADF82B
:1057C000000003208DF8020010208DF803006946C8
:1057D0003D48FAF715FF0F20ADF8000048208DF87E
:1057E000030069463848FAF70BFF4FF60F71364849
:1057F000FAF7BCFF3448FAF79FFF00F00F000F28BC
:1058000002D14FF0FF30ACE72F48FAF795FF00F0D8
:105810000F000F2820DA0220FEF788FB2A48FAF74B
:105820008BFF00F00F000F2816DA2748FAF784FFE5
:1058300000F00F06072E0BD00B2E07D00D2E03D035
:105840000E2E07D1002406E0012404E0022402E029
:10585000032400E000BF00BF052C01D0052D02D1BC
:105860004FF0FF307DE7194800EB041050F8250099
:1058700077E710B5FFF74AFF0446601C70B914487B
:105880000068401C10B94FF0FF3010BD104804688C
:105890004FF0FF300E4908602046F6E70C480460E0
:1058A0006FF00100F1E710B5FFF7E3FF0446601C5D
:1058B00040B1A01C30B1214606A001F029F82046D5
:1058C000FDF7EAFA10BD0000001C01407401002041
:1058D000B40100206B6579202563207072657373B5
:1058E0002075700A0000000010B5F3A001F010F858
:1058F000002010BD10B504464FF48050F8490860F0
:1059000009E0F7490868411EF54A116018B9FFF728
:10591000EBFFC0B210BD0221F248FBF7E0FA00280D
:10592000EFD02146EF48FBF787FA4FF48050EC495F
:10593000086009E0EA490868411EE94A116018B99F
:10594000FFF7D2FFC0B2E5E70121E648FBF7C7FA4F
:105950000028EFD0E348FBF771FAC0B2DAE72DE98F
:10596000F04100240025002600270821DE48FAF730
:10597000F6FE9F20FFF7BEFFFF20FFF7BBFF0546A7
:10598000FF20FFF7B7FF0646FF20FFF7B3FF0746EC
:105990000821D548FAF7E1FE280440EA062040EA4B
:1059A00007042046BDE8F08100B587B000BF00BF06
:1059B00001210803FBF7E0F801210420FBF7DCF8E4
:1059C0000820ADF8040003208DF8060010208DF8A3
:1059D000070001A9C448FAF713FE01210420FBF7D0
:1059E000CBF82020ADF8040018208DF8070001A99D
:1059F000BD48FAF705FE01210420FBF7BDF8402061
:105A0000ADF8040001A9B848FAF7FAFD0121042015
:105A1000FBF7B2F88020ADF8040001A9B248FAF70C
:105A2000EFFD0821B048FAF798FE0020ADF8080015
:105A30004FF48270ADF80A000020ADF80C0002208F
:105A4000ADF80E000120ADF810004002ADF81200D4
:105A50000820ADF814000020ADF816000720ADF8BE
:105A6000180002A99F48FBF711F901219D48FBF797
:105A7000B2F9FFF774FF9D49884207D19C4800782E
:105A800020F001009A49087007B000BD98480078DE
:105A900040F0010096490870F6E710B500BF00BF5E
:105AA000FFF75DFF9149884206D19148007820F0C8
:105AB00001008F49087010BD8D48007840F001004A
:105AC0008B490870F7E7024600BF00BF8AB1012A80
:105AD0000BD0022A02D0032A0CD103E04FF48050ED
